{
	"_format": "hh-sol-artifact-1",
	"contractName": "CompliantToken",
	"sourceName": "contracts/CompliantToken.sol",
	"abi": [
		{
			"inputs": [
				{
					"internalType": "uint256",
					"name": "initialSupply",
					"type": "uint256"
				},
				{
					"internalType": "string",
					"name": "name",
					"type": "string"
				},
				{
					"internalType": "string",
					"name": "symbol",
					"type": "string"
				}
			],
			"stateMutability": "nonpayable",
			"type": "constructor"
		},
		{
			"inputs": [],
			"name": "ECDSAInvalidSignature",
			"type": "error"
		},
		{
			"inputs": [
				{
					"internalType": "uint256",
					"name": "length",
					"type": "uint256"
				}
			],
			"name": "ECDSAInvalidSignatureLength",
			"type": "error"
		},
		{
			"inputs": [
				{
					"internalType": "bytes32",
					"name": "s",
					"type": "bytes32"
				}
			],
			"name": "ECDSAInvalidSignatureS",
			"type": "error"
		},
		{
			"inputs": [
				{
					"internalType": "address",
					"name": "spender",
					"type": "address"
				},
				{
					"internalType": "uint256",
					"name": "allowance",
					"type": "uint256"
				},
				{
					"internalType": "uint256",
					"name": "needed",
					"type": "uint256"
				}
			],
			"name": "ERC20InsufficientAllowance",
			"type": "error"
		},
		{
			"inputs": [
				{
					"internalType": "address",
					"name": "sender",
					"type": "address"
				},
				{
					"internalType": "uint256",
					"name": "balance",
					"type": "uint256"
				},
				{
					"internalType": "uint256",
					"name": "needed",
					"type": "uint256"
				}
			],
			"name": "ERC20InsufficientBalance",
			"type": "error"
		},
		{
			"inputs": [
				{
					"internalType": "address",
					"name": "approver",
					"type": "address"
				}
			],
			"name": "ERC20InvalidApprover",
			"type": "error"
		},
		{
			"inputs": [
				{
					"internalType": "address",
					"name": "receiver",
					"type": "address"
				}
			],
			"name": "ERC20InvalidReceiver",
			"type": "error"
		},
		{
			"inputs": [
				{
					"internalType": "address",
					"name": "sender",
					"type": "address"
				}
			],
			"name": "ERC20InvalidSender",
			"type": "error"
		},
		{
			"inputs": [
				{
					"internalType": "address",
					"name": "spender",
					"type": "address"
				}
			],
			"name": "ERC20InvalidSpender",
			"type": "error"
		},
		{
			"inputs": [
				{
					"internalType": "uint256",
					"name": "deadline",
					"type": "uint256"
				}
			],
			"name": "ERC2612ExpiredSignature",
			"type": "error"
		},
		{
			"inputs": [
				{
					"internalType": "address",
					"name": "signer",
					"type": "address"
				},
				{
					"internalType": "address",
					"name": "owner",
					"type": "address"
				}
			],
			"name": "ERC2612InvalidSigner",
			"type": "error"
		},
		{
			"inputs": [],
			"name": "EnforcedPause",
			"type": "error"
		},
		{
			"inputs": [],
			"name": "ExpectedPause",
			"type": "error"
		},
		{
			"inputs": [
				{
					"internalType": "address",
					"name": "account",
					"type": "address"
				},
				{
					"internalType": "uint256",
					"name": "currentNonce",
					"type": "uint256"
				}
			],
			"name": "InvalidAccountNonce",
			"type": "error"
		},
		{
			"inputs": [],
			"name": "InvalidShortString",
			"type": "error"
		},
		{
			"inputs": [
				{
					"internalType": "address",
					"name": "owner",
					"type": "address"
				}
			],
			"name": "OwnableInvalidOwner",
			"type": "error"
		},
		{
			"inputs": [
				{
					"internalType": "address",
					"name": "account",
					"type": "address"
				}
			],
			"name": "OwnableUnauthorizedAccount",
			"type": "error"
		},
		{
			"inputs": [
				{
					"internalType": "string",
					"name": "str",
					"type": "string"
				}
			],
			"name": "StringTooLong",
			"type": "error"
		},
		{
			"anonymous": false,
			"inputs": [
				{
					"indexed": true,
					"internalType": "address",
					"name": "owner",
					"type": "address"
				},
				{
					"indexed": true,
					"internalType": "address",
					"name": "spender",
					"type": "address"
				},
				{
					"indexed": false,
					"internalType": "uint256",
					"name": "value",
					"type": "uint256"
				}
			],
			"name": "Approval",
			"type": "event"
		},
		{
			"anonymous": false,
			"inputs": [],
			"name": "EIP712DomainChanged",
			"type": "event"
		},
		{
			"anonymous": false,
			"inputs": [
				{
					"indexed": true,
					"internalType": "address",
					"name": "previousOwner",
					"type": "address"
				},
				{
					"indexed": true,
					"internalType": "address",
					"name": "newOwner",
					"type": "address"
				}
			],
			"name": "OwnershipTransferred",
			"type": "event"
		},
		{
			"anonymous": false,
			"inputs": [
				{
					"indexed": false,
					"internalType": "address",
					"name": "account",
					"type": "address"
				}
			],
			"name": "Paused",
			"type": "event"
		},
		{
			"anonymous": false,
			"inputs": [
				{
					"indexed": true,
					"internalType": "address",
					"name": "from",
					"type": "address"
				},
				{
					"indexed": true,
					"internalType": "address",
					"name": "to",
					"type": "address"
				},
				{
					"indexed": false,
					"internalType": "uint256",
					"name": "value",
					"type": "uint256"
				}
			],
			"name": "Transfer",
			"type": "event"
		},
		{
			"anonymous": false,
			"inputs": [
				{
					"indexed": false,
					"internalType": "address",
					"name": "account",
					"type": "address"
				}
			],
			"name": "Unpaused",
			"type": "event"
		},
		{
			"inputs": [],
			"name": "DOMAIN_SEPARATOR",
			"outputs": [
				{
					"internalType": "bytes32",
					"name": "",
					"type": "bytes32"
				}
			],
			"stateMutability": "view",
			"type": "function"
		},
		{
			"inputs": [
				{
					"internalType": "address",
					"name": "_address",
					"type": "address"
				}
			],
			"name": "addToWhitelist",
			"outputs": [],
			"stateMutability": "nonpayable",
			"type": "function"
		},
		{
			"inputs": [
				{
					"internalType": "address[]",
					"name": "_addresses",
					"type": "address[]"
				}
			],
			"name": "addToWhitelistBatch",
			"outputs": [],
			"stateMutability": "nonpayable",
			"type": "function"
		},
		{
			"inputs": [
				{
					"internalType": "address",
					"name": "owner",
					"type": "address"
				},
				{
					"internalType": "address",
					"name": "spender",
					"type": "address"
				}
			],
			"name": "allowance",
			"outputs": [
				{
					"internalType": "uint256",
					"name": "",
					"type": "uint256"
				}
			],
			"stateMutability": "view",
			"type": "function"
		},
		{
			"inputs": [
				{
					"internalType": "address",
					"name": "spender",
					"type": "address"
				},
				{
					"internalType": "uint256",
					"name": "value",
					"type": "uint256"
				}
			],
			"name": "approve",
			"outputs": [
				{
					"internalType": "bool",
					"name": "",
					"type": "bool"
				}
			],
			"stateMutability": "nonpayable",
			"type": "function"
		},
		{
			"inputs": [
				{
					"internalType": "address",
					"name": "account",
					"type": "address"
				}
			],
			"name": "balanceOf",
			"outputs": [
				{
					"internalType": "uint256",
					"name": "",
					"type": "uint256"
				}
			],
			"stateMutability": "view",
			"type": "function"
		},
		{
			"inputs": [
				{
					"internalType": "address",
					"name": "account",
					"type": "address"
				},
				{
					"internalType": "uint256",
					"name": "value",
					"type": "uint256"
				}
			],
			"name": "burn",
			"outputs": [],
			"stateMutability": "nonpayable",
			"type": "function"
		},
		{
			"inputs": [],
			"name": "decimals",
			"outputs": [
				{
					"internalType": "uint8",
					"name": "",
					"type": "uint8"
				}
			],
			"stateMutability": "view",
			"type": "function"
		},
		{
			"inputs": [],
			"name": "eip712Domain",
			"outputs": [
				{
					"internalType": "bytes1",
					"name": "fields",
					"type": "bytes1"
				},
				{
					"internalType": "string",
					"name": "name",
					"type": "string"
				},
				{
					"internalType": "string",
					"name": "version",
					"type": "string"
				},
				{
					"internalType": "uint256",
					"name": "chainId",
					"type": "uint256"
				},
				{
					"internalType": "address",
					"name": "verifyingContract",
					"type": "address"
				},
				{
					"internalType": "bytes32",
					"name": "salt",
					"type": "bytes32"
				},
				{
					"internalType": "uint256[]",
					"name": "extensions",
					"type": "uint256[]"
				}
			],
			"stateMutability": "view",
			"type": "function"
		},
		{
			"inputs": [
				{
					"internalType": "address",
					"name": "from",
					"type": "address"
				},
				{
					"internalType": "address",
					"name": "to",
					"type": "address"
				},
				{
					"internalType": "uint256",
					"name": "value",
					"type": "uint256"
				}
			],
			"name": "forceTransfer",
			"outputs": [
				{
					"internalType": "bool",
					"name": "",
					"type": "bool"
				}
			],
			"stateMutability": "nonpayable",
			"type": "function"
		},
		{
			"inputs": [
				{
					"internalType": "address",
					"name": "_address",
					"type": "address"
				}
			],
			"name": "isWhitelisted",
			"outputs": [
				{
					"internalType": "bool",
					"name": "",
					"type": "bool"
				}
			],
			"stateMutability": "view",
			"type": "function"
		},
		{
			"inputs": [
				{
					"internalType": "address",
					"name": "account",
					"type": "address"
				},
				{
					"internalType": "uint256",
					"name": "amount",
					"type": "uint256"
				}
			],
			"name": "mint",
			"outputs": [],
			"stateMutability": "nonpayable",
			"type": "function"
		},
		{
			"inputs": [],
			"name": "name",
			"outputs": [
				{
					"internalType": "string",
					"name": "",
					"type": "string"
				}
			],
			"stateMutability": "view",
			"type": "function"
		},
		{
			"inputs": [
				{
					"internalType": "address",
					"name": "owner",
					"type": "address"
				}
			],
			"name": "nonces",
			"outputs": [
				{
					"internalType": "uint256",
					"name": "",
					"type": "uint256"
				}
			],
			"stateMutability": "view",
			"type": "function"
		},
		{
			"inputs": [],
			"name": "owner",
			"outputs": [
				{
					"internalType": "address",
					"name": "",
					"type": "address"
				}
			],
			"stateMutability": "view",
			"type": "function"
		},
		{
			"inputs": [],
			"name": "pause",
			"outputs": [],
			"stateMutability": "nonpayable",
			"type": "function"
		},
		{
			"inputs": [],
			"name": "paused",
			"outputs": [
				{
					"internalType": "bool",
					"name": "",
					"type": "bool"
				}
			],
			"stateMutability": "view",
			"type": "function"
		},
		{
			"inputs": [
				{
					"internalType": "address",
					"name": "owner",
					"type": "address"
				},
				{
					"internalType": "address",
					"name": "spender",
					"type": "address"
				},
				{
					"internalType": "uint256",
					"name": "value",
					"type": "uint256"
				},
				{
					"internalType": "uint256",
					"name": "deadline",
					"type": "uint256"
				},
				{
					"internalType": "uint8",
					"name": "v",
					"type": "uint8"
				},
				{
					"internalType": "bytes32",
					"name": "r",
					"type": "bytes32"
				},
				{
					"internalType": "bytes32",
					"name": "s",
					"type": "bytes32"
				}
			],
			"name": "permit",
			"outputs": [],
			"stateMutability": "nonpayable",
			"type": "function"
		},
		{
			"inputs": [
				{
					"internalType": "address",
					"name": "_address",
					"type": "address"
				}
			],
			"name": "removeFromWhitelist",
			"outputs": [],
			"stateMutability": "nonpayable",
			"type": "function"
		},
		{
			"inputs": [
				{
					"internalType": "address[]",
					"name": "_addresses",
					"type": "address[]"
				}
			],
			"name": "removeFromWhitelistBatch",
			"outputs": [],
			"stateMutability": "nonpayable",
			"type": "function"
		},
		{
			"inputs": [],
			"name": "renounceOwnership",
			"outputs": [],
			"stateMutability": "nonpayable",
			"type": "function"
		},
		{
			"inputs": [
				{
					"internalType": "address",
					"name": "_crowdSale",
					"type": "address"
				}
			],
			"name": "setCrowdSale",
			"outputs": [],
			"stateMutability": "nonpayable",
			"type": "function"
		},
		{
			"inputs": [],
			"name": "symbol",
			"outputs": [
				{
					"internalType": "string",
					"name": "",
					"type": "string"
				}
			],
			"stateMutability": "view",
			"type": "function"
		},
		{
			"inputs": [],
			"name": "totalSupply",
			"outputs": [
				{
					"internalType": "uint256",
					"name": "",
					"type": "uint256"
				}
			],
			"stateMutability": "view",
			"type": "function"
		},
		{
			"inputs": [
				{
					"internalType": "address",
					"name": "to",
					"type": "address"
				},
				{
					"internalType": "uint256",
					"name": "value",
					"type": "uint256"
				}
			],
			"name": "transfer",
			"outputs": [
				{
					"internalType": "bool",
					"name": "",
					"type": "bool"
				}
			],
			"stateMutability": "nonpayable",
			"type": "function"
		},
		{
			"inputs": [
				{
					"internalType": "address",
					"name": "from",
					"type": "address"
				},
				{
					"internalType": "address",
					"name": "to",
					"type": "address"
				},
				{
					"internalType": "uint256",
					"name": "value",
					"type": "uint256"
				}
			],
			"name": "transferFrom",
			"outputs": [
				{
					"internalType": "bool",
					"name": "",
					"type": "bool"
				}
			],
			"stateMutability": "nonpayable",
			"type": "function"
		},
		{
			"inputs": [
				{
					"internalType": "address",
					"name": "newOwner",
					"type": "address"
				}
			],
			"name": "transferOwnership",
			"outputs": [],
			"stateMutability": "nonpayable",
			"type": "function"
		},
		{
			"inputs": [],
			"name": "unpause",
			"outputs": [],
			"stateMutability": "nonpayable",
			"type": "function"
		},
		{
			"inputs": [
				{
					"internalType": "address",
					"name": "",
					"type": "address"
				}
			],
			"name": "whitelist",
			"outputs": [
				{
					"internalType": "bool",
					"name": "",
					"type": "bool"
				}
			],
			"stateMutability": "view",
			"type": "function"
		}
	],
	"bytecode": "0x6101606040523480156200001257600080fd5b50604051620043f4380380620043f4833981810160405281019062000038919062000e21565b620000486200029c60201b60201c565b82806040518060400160405280600181526020017f310000000000000000000000000000000000000000000000000000000000000081525085858160039081620000939190620010fc565b508060049081620000a59190620010fc565b505050620000be600583620002a460201b90919060201c565b6101208181525050620000dc600682620002a460201b90919060201c565b6101408181525050818051906020012060e08181525050808051906020012061010081815250504660a081815250506200011b620002fc60201b60201c565b608081815250503073ffffffffffffffffffffffffffffffffffffffff1660c08173ffffffffffffffffffffffffffffffffffffffff1681525050505050600073ffffffffffffffffffffffffffffffffffffffff168173ffffffffffffffffffffffffffffffffffffffff1603620001ce5760006040517f1e4fbdf7000000000000000000000000000000000000000000000000000000008152600401620001c5919062001228565b60405180910390fd5b620001df816200035960201b60201c565b506000600860146101000a81548160ff021916908315150217905550600160096000620002116200029c60201b60201c565b73ffffffffffffffffffffffffffffffffffffffff1673ffffffffffffffffffffffffffffffffffffffff16815260200190815260200160002060006101000a81548160ff02191690831515021790555062000283620002766200029c60201b60201c565b846200041f60201b60201c565b620002936200044560201b60201c565b505050620015b4565b600033905090565b6000602083511015620002ca57620002c2836200046760201b60201c565b9050620002f6565b82620002dc83620004d460201b60201c565b6000019081620002ed9190620010fc565b5060ff60001b90505b92915050565b60007f8b73c3c69bb8fe3d512ecc4cf759cc79239f7b179b0ffacaa9a75d522b39400f60e0516101005146306040516020016200033e95949392919062001271565b60405160208183030381529060405280519060200120905090565b6000600860009054906101000a900473ffffffffffffffffffffffffffffffffffffffff16905081600860006101000a81548173ffffffffffffffffffffffffffffffffffffffff021916908373ffffffffffffffffffffffffffffffffffffffff1602179055508173ffffffffffffffffffffffffffffffffffffffff168173ffffffffffffffffffffffffffffffffffffffff167f8be0079c531659141344cd1fd0a4f28419497f9722a3daafe3b4186f6b6457e060405160405180910390a35050565b6200042f620004de60201b60201c565b6200044182826200058060201b60201c565b5050565b62000455620004de60201b60201c565b620004656200060d60201b60201c565b565b600080829050601f81511115620004b757826040517f305a27a9000000000000000000000000000000000000000000000000000000008152600401620004ae919062001320565b60405180910390fd5b805181620004c59062001376565b60001c1760001b915050919050565b6000819050919050565b620004ee6200029c60201b60201c565b73ffffffffffffffffffffffffffffffffffffffff16620005146200068260201b60201c565b73ffffffffffffffffffffffffffffffffffffffff16146200057e57620005406200029c60201b60201c565b6040517f118cdaa700000000000000000000000000000000000000000000000000000000815260040162000575919062001228565b60405180910390fd5b565b600073ffffffffffffffffffffffffffffffffffffffff168273ffffffffffffffffffffffffffffffffffffffff1603620005f55760006040517fec442f05000000000000000000000000000000000000000000000000000000008152600401620005ec919062001228565b60405180910390fd5b6200060960008383620006ac60201b60201c565b5050565b6200061d620009c260201b60201c565b6001600860146101000a81548160ff0219169083151502179055507f62e78cea01bee320cd4e420270b5ea74000d11b0c9f74754ebdbfc544b05a258620006696200029c60201b60201c565b60405162000678919062001228565b60405180910390a1565b6000600860009054906101000a900473ffffffffffffffffffffffffffffffffffffffff16905090565b620006bf83838362000a0c60201b60201c565b600073ffffffffffffffffffffffffffffffffffffffff168273ffffffffffffffffffffffffffffffffffffffff16146200078457600960008373ffffffffffffffffffffffffffffffffffffffff1673ffffffffffffffffffffffffffffffffffffffff16815260200190815260200160002060009054906101000a900460ff1662000783576040517f08c379a00000000000000000000000000000000000000000000000000000000081526004016200077a9062001436565b60405180910390fd5b5b600073ffffffffffffffffffffffffffffffffffffffff168373ffffffffffffffffffffffffffffffffffffffff16146200084957600960008473ffffffffffffffffffffffffffffffffffffffff1673ffffffffffffffffffffffffffffffffffffffff16815260200190815260200160002060009054906101000a900460ff1662000848576040517f08c379a00000000000000000000000000000000000000000000000000000000081526004016200083f9062001436565b60405180910390fd5b5b6200085962000c3c60201b60201c565b8015620009645750600a60009054906101000a900473ffffffffffffffffffffffffffffffffffffffff1673ffffffffffffffffffffffffffffffffffffffff168373ffffffffffffffffffffffffffffffffffffffff161415806200090d5750600a60009054906101000a900473ffffffffffffffffffffffffffffffffffffffff1673ffffffffffffffffffffffffffffffffffffffff168273ffffffffffffffffffffffffffffffffffffffff1614155b80620009635750620009246200068260201b60201c565b73ffffffffffffffffffffffffffffffffffffffff166200094a6200029c60201b60201c565b73ffffffffffffffffffffffffffffffffffffffff1614155b5b15620009bd576200097a62000c3c60201b60201c565b620009bc576040517f08c379a0000000000000000000000000000000000000000000000000000000008152600401620009b390620014ce565b60405180910390fd5b5b505050565b620009d262000c3c60201b60201c565b1562000a0a576040517fd93c066500000000000000000000000000000000000000000000000000000000815260040160405180910390fd5b565b600073ffffffffffffffffffffffffffffffffffffffff168373ffffffffffffffffffffffffffffffffffffffff160362000a6257806002600082825462000a5591906200151f565b9250508190555062000b38565b60008060008573ffffffffffffffffffffffffffffffffffffffff1673ffffffffffffffffffffffffffffffffffffffff1681526020019081526020016000205490508181101562000af1578381836040517fe450d38c00000000000000000000000000000000000000000000000000000000815260040162000ae8939291906200155a565b60405180910390fd5b8181036000808673ffffffffffffffffffffffffffffffffffffffff1673ffffffffffffffffffffffffffffffffffffffff16815260200190815260200160002081905550505b600073ffffffffffffffffffffffffffffffffffffffff168273ffffffffffffffffffffffffffffffffffffffff160362000b83578060026000828254039250508190555062000bd0565b806000808473ffffffffffffffffffffffffffffffffffffffff1673ffffffffffffffffffffffffffffffffffffffff168152602001908152602001600020600082825401925050819055505b8173ffffffffffffffffffffffffffffffffffffffff168373ffffffffffffffffffffffffffffffffffffffff167fddf252ad1be2c89b69c2b068fc378daa952ba7f163c4a11628f55a4df523b3ef8360405162000c2f919062001597565b60405180910390a3505050565b6000600860149054906101000a900460ff16905090565b6000604051905090565b600080fd5b600080fd5b6000819050919050565b62000c7c8162000c67565b811462000c8857600080fd5b50565b60008151905062000c9c8162000c71565b92915050565b600080fd5b600080fd5b6000601f19601f8301169050919050565b7f4e487b7100000000000000000000000000000000000000000000000000000000600052604160045260246000fd5b62000cf78262000cac565b810181811067ffffffffffffffff8211171562000d195762000d1862000cbd565b5b80604052505050565b600062000d2e62000c53565b905062000d3c828262000cec565b919050565b600067ffffffffffffffff82111562000d5f5762000d5e62000cbd565b5b62000d6a8262000cac565b9050602081019050919050565b60005b8381101562000d9757808201518184015260208101905062000d7a565b60008484015250505050565b600062000dba62000db48462000d41565b62000d22565b90508281526020810184848401111562000dd95762000dd862000ca7565b5b62000de684828562000d77565b509392505050565b600082601f83011262000e065762000e0562000ca2565b5b815162000e1884826020860162000da3565b91505092915050565b60008060006060848603121562000e3d5762000e3c62000c5d565b5b600062000e4d8682870162000c8b565b935050602084015167ffffffffffffffff81111562000e715762000e7062000c62565b5b62000e7f8682870162000dee565b925050604084015167ffffffffffffffff81111562000ea35762000ea262000c62565b5b62000eb18682870162000dee565b9150509250925092565b600081519050919050565b7f4e487b7100000000000000000000000000000000000000000000000000000000600052602260045260246000fd5b6000600282049050600182168062000f0e57607f821691505b60208210810362000f245762000f2362000ec6565b5b50919050565b60008190508160005260206000209050919050565b60006020601f8301049050919050565b600082821b905092915050565b60006008830262000f8e7fffffffffffffffffffffffffffffffffffffffffffffffffffffffffffffffff8262000f4f565b62000f9a868362000f4f565b95508019841693508086168417925050509392505050565b6000819050919050565b600062000fdd62000fd762000fd18462000c67565b62000fb2565b62000c67565b9050919050565b6000819050919050565b62000ff98362000fbc565b62001011620010088262000fe4565b84845462000f5c565b825550505050565b600090565b6200102862001019565b6200103581848462000fee565b505050565b5b818110156200105d57620010516000826200101e565b6001810190506200103b565b5050565b601f821115620010ac57620010768162000f2a565b620010818462000f3f565b8101602085101562001091578190505b620010a9620010a08562000f3f565b8301826200103a565b50505b505050565b600082821c905092915050565b6000620010d160001984600802620010b1565b1980831691505092915050565b6000620010ec8383620010be565b9150826002028217905092915050565b620011078262000ebb565b67ffffffffffffffff81111562001123576200112262000cbd565b5b6200112f825462000ef5565b6200113c82828562001061565b600060209050601f8311600181146200117457600084156200115f578287015190505b6200116b8582620010de565b865550620011db565b601f198416620011848662000f2a565b60005b82811015620011ae5784890151825560018201915060208501945060208101905062001187565b86831015620011ce5784890151620011ca601f891682620010be565b8355505b6001600288020188555050505b505050505050565b600073ffffffffffffffffffffffffffffffffffffffff82169050919050565b60006200121082620011e3565b9050919050565b620012228162001203565b82525050565b60006020820190506200123f600083018462001217565b92915050565b6000819050919050565b6200125a8162001245565b82525050565b6200126b8162000c67565b82525050565b600060a0820190506200128860008301886200124f565b6200129760208301876200124f565b620012a660408301866200124f565b620012b5606083018562001260565b620012c4608083018462001217565b9695505050505050565b600082825260208201905092915050565b6000620012ec8262000ebb565b620012f88185620012ce565b93506200130a81856020860162000d77565b620013158162000cac565b840191505092915050565b600060208201905081810360008301526200133c8184620012df565b905092915050565b600081519050919050565b6000819050602082019050919050565b60006200136d825162001245565b80915050919050565b6000620013838262001344565b826200138f846200134f565b90506200139c816200135f565b92506020821015620013df57620013da7fffffffffffffffffffffffffffffffffffffffffffffffffffffffffffffffff8360200360080262000f4f565b831692505b5050919050565b7f436f6d706c69616e74546f6b656e3a3a4e4f545f57484954454c495354454400600082015250565b60006200141e601f83620012ce565b91506200142b82620013e6565b602082019050919050565b6000602082019050818103600083015262001451816200140f565b9050919050565b7f436f6d706c69616e74546f6b656e3a3a4e4f545f414c4c4f5745445f544f5f5460008201527f52414e5346455200000000000000000000000000000000000000000000000000602082015250565b6000620014b6602783620012ce565b9150620014c38262001458565b604082019050919050565b60006020820190508181036000830152620014e981620014a7565b9050919050565b7f4e487b7100000000000000000000000000000000000000000000000000000000600052601160045260246000fd5b60006200152c8262000c67565b9150620015398362000c67565b9250828201905080821115620015545762001553620014f0565b5b92915050565b600060608201905062001571600083018662001217565b62001580602083018562001260565b6200158f604083018462001260565b949350505050565b6000602082019050620015ae600083018462001260565b92915050565b60805160a05160c05160e051610100516101205161014051612de56200160f60003960006114d80152600061149d01526000611b2901526000611b080152600061118a015260006111e0015260006112090152612de56000f3fe608060405234801561001057600080fd5b50600436106101cf5760003560e01c80638456cb5911610104578063a6177139116100a2578063dd62ed3e11610071578063dd62ed3e14610510578063e43252d714610540578063f2fde38b1461055c578063f4b5cbc414610578576101cf565b8063a61771391461048c578063a9059cbb146104a8578063ae5f1eb9146104d8578063d505accf146104f4576101cf565b80638da5cb5b116100de5780638da5cb5b1461040457806395d89b41146104225780639b19251a146104405780639dc29fac14610470576101cf565b80638456cb59146103ba57806384b0196e146103c45780638ab1d681146103e8576101cf565b80633af32abf116101715780635c975abb1161014b5780635c975abb1461033257806370a0823114610350578063715018a6146103805780637ecebe001461038a576101cf565b80633af32abf146102dc5780633f4ba83a1461030c57806340c10f1914610316576101cf565b806323b872dd116101ad57806323b872dd14610240578063313ce5671461027057806333bebb771461028e5780633644e515146102be576101cf565b806306fdde03146101d4578063095ea7b3146101f257806318160ddd14610222575b600080fd5b6101dc610594565b6040516101e991906122bc565b60405180910390f35b61020c60048036038101906102079190612386565b610626565b60405161021991906123e1565b60405180910390f35b61022a610649565b604051610237919061240b565b60405180910390f35b61025a60048036038101906102559190612426565b610653565b60405161026791906123e1565b60405180910390f35b610278610682565b6040516102859190612495565b60405180910390f35b6102a860048036038101906102a39190612426565b61068b565b6040516102b591906123e1565b60405180910390f35b6102c66106ab565b6040516102d391906124c9565b60405180910390f35b6102f660048036038101906102f191906124e4565b6106ba565b60405161030391906123e1565b60405180910390f35b610314610710565b005b610330600480360381019061032b9190612386565b610722565b005b61033a610738565b60405161034791906123e1565b60405180910390f35b61036a600480360381019061036591906124e4565b61074f565b604051610377919061240b565b60405180910390f35b610388610797565b005b6103a4600480360381019061039f91906124e4565b6107ab565b6040516103b1919061240b565b60405180910390f35b6103c26107bd565b005b6103cc6107cf565b6040516103df9796959493929190612619565b60405180910390f35b61040260048036038101906103fd91906124e4565b610879565b005b61040c61094b565b604051610419919061269d565b60405180910390f35b61042a610975565b60405161043791906122bc565b60405180910390f35b61045a600480360381019061045591906124e4565b610a07565b60405161046791906123e1565b60405180910390f35b61048a60048036038101906104859190612386565b610a27565b005b6104a660048036038101906104a19190612800565b610a3d565b005b6104c260048036038101906104bd9190612386565b610ada565b6040516104cf91906123e1565b60405180910390f35b6104f260048036038101906104ed9190612800565b610afd565b005b61050e600480360381019061050991906128a1565b610b9a565b005b61052a60048036038101906105259190612943565b610ce2565b604051610537919061240b565b60405180910390f35b61055a600480360381019061055591906124e4565b610d69565b005b610576600480360381019061057191906124e4565b610e33565b005b610592600480360381019061058d91906124e4565b610eb9565b005b6060600380546105a3906129b2565b80601f01602080910402602001604051908101604052809291908181526020018280546105cf906129b2565b801561061c5780601f106105f15761010080835404028352916020019161061c565b820191906000526020600020905b8154815290600101906020018083116105ff57829003601f168201915b5050505050905090565b600080610631610f5d565b905061063e818585610f65565b600191505092915050565b6000600254905090565b60008061065e610f5d565b905061066b858285610f77565b61067685858561100b565b60019150509392505050565b60006012905090565b60006106956110ff565b6106a084848461100b565b600190509392505050565b60006106b5611186565b905090565b6000600960008373ffffffffffffffffffffffffffffffffffffffff1673ffffffffffffffffffffffffffffffffffffffff16815260200190815260200160002060009054906101000a900460ff169050919050565b6107186110ff565b61072061123d565b565b61072a6110ff565b61073482826112a0565b5050565b6000600860149054906101000a900460ff16905090565b60008060008373ffffffffffffffffffffffffffffffffffffffff1673ffffffffffffffffffffffffffffffffffffffff168152602001908152602001600020549050919050565b61079f6110ff565b6107a96000611322565b565b60006107b6826113e8565b9050919050565b6107c56110ff565b6107cd611431565b565b6000606080600080600060606107e3611494565b6107eb6114cf565b46306000801b600067ffffffffffffffff81111561080c5761080b6126bd565b5b60405190808252806020026020018201604052801561083a5781602001602082028036833780820191505090505b507f0f00000000000000000000000000000000000000000000000000000000000000959493929190965096509650965096509650965090919293949596565b6108816110ff565b600073ffffffffffffffffffffffffffffffffffffffff168173ffffffffffffffffffffffffffffffffffffffff16036108f0576040517f08c379a00000000000000000000000000000000000000000000000000000000081526004016108e790612a2f565b60405180910390fd5b6000600960008373ffffffffffffffffffffffffffffffffffffffff1673ffffffffffffffffffffffffffffffffffffffff16815260200190815260200160002060006101000a81548160ff02191690831515021790555050565b6000600860009054906101000a900473ffffffffffffffffffffffffffffffffffffffff16905090565b606060048054610984906129b2565b80601f01602080910402602001604051908101604052809291908181526020018280546109b0906129b2565b80156109fd5780601f106109d2576101008083540402835291602001916109fd565b820191906000526020600020905b8154815290600101906020018083116109e057829003601f168201915b5050505050905090565b60096020528060005260406000206000915054906101000a900460ff1681565b610a2f6110ff565b610a39828261150a565b5050565b610a456110ff565b60005b8151811015610ad657600160096000848481518110610a6a57610a69612a4f565b5b602002602001015173ffffffffffffffffffffffffffffffffffffffff1673ffffffffffffffffffffffffffffffffffffffff16815260200190815260200160002060006101000a81548160ff0219169083151502179055508080610ace90612aad565b915050610a48565b5050565b600080610ae5610f5d565b9050610af281858561100b565b600191505092915050565b610b056110ff565b60005b8151811015610b9657600060096000848481518110610b2a57610b29612a4f565b5b602002602001015173ffffffffffffffffffffffffffffffffffffffff1673ffffffffffffffffffffffffffffffffffffffff16815260200190815260200160002060006101000a81548160ff0219169083151502179055508080610b8e90612aad565b915050610b08565b5050565b83421115610bdf57836040517f62791302000000000000000000000000000000000000000000000000000000008152600401610bd6919061240b565b60405180910390fd5b60007f6e71edae12b1b97f4d1f60370fef10105fa2faae0126114a169c64845d6126c9888888610c0e8c61158c565b89604051602001610c2496959493929190612af5565b6040516020818303038152906040528051906020012090506000610c47826115e3565b90506000610c57828787876115fd565b90508973ffffffffffffffffffffffffffffffffffffffff168173ffffffffffffffffffffffffffffffffffffffff1614610ccb57808a6040517f4b800e46000000000000000000000000000000000000000000000000000000008152600401610cc2929190612b56565b60405180910390fd5b610cd68a8a8a610f65565b50505050505050505050565b6000600160008473ffffffffffffffffffffffffffffffffffffffff1673ffffffffffffffffffffffffffffffffffffffff16815260200190815260200160002060008373ffffffffffffffffffffffffffffffffffffffff1673ffffffffffffffffffffffffffffffffffffffff16815260200190815260200160002054905092915050565b600073ffffffffffffffffffffffffffffffffffffffff168173ffffffffffffffffffffffffffffffffffffffff1603610dd8576040517f08c379a0000000000000000000000000000000000000000000000000000000008152600401610dcf90612a2f565b60405180910390fd5b6001600960008373ffffffffffffffffffffffffffffffffffffffff1673ffffffffffffffffffffffffffffffffffffffff16815260200190815260200160002060006101000a81548160ff02191690831515021790555050565b610e3b6110ff565b600073ffffffffffffffffffffffffffffffffffffffff168173ffffffffffffffffffffffffffffffffffffffff1603610ead5760006040517f1e4fbdf7000000000000000000000000000000000000000000000000000000008152600401610ea4919061269d565b60405180910390fd5b610eb681611322565b50565b610ec16110ff565b80600a60006101000a81548173ffffffffffffffffffffffffffffffffffffffff021916908373ffffffffffffffffffffffffffffffffffffffff1602179055506001600960008373ffffffffffffffffffffffffffffffffffffffff1673ffffffffffffffffffffffffffffffffffffffff16815260200190815260200160002060006101000a81548160ff02191690831515021790555050565b600033905090565b610f72838383600161162d565b505050565b6000610f838484610ce2565b90507fffffffffffffffffffffffffffffffffffffffffffffffffffffffffffffffff81146110055781811015610ff5578281836040517ffb8f41b2000000000000000000000000000000000000000000000000000000008152600401610fec93929190612b7f565b60405180910390fd5b6110048484848403600061162d565b5b50505050565b600073ffffffffffffffffffffffffffffffffffffffff168373ffffffffffffffffffffffffffffffffffffffff160361107d5760006040517f96c6fd1e000000000000000000000000000000000000000000000000000000008152600401611074919061269d565b60405180910390fd5b600073ffffffffffffffffffffffffffffffffffffffff168273ffffffffffffffffffffffffffffffffffffffff16036110ef5760006040517fec442f050000000000000000000000000000000000000000000000000000000081526004016110e6919061269d565b60405180910390fd5b6110fa838383611804565b505050565b611107610f5d565b73ffffffffffffffffffffffffffffffffffffffff1661112561094b565b73ffffffffffffffffffffffffffffffffffffffff161461118457611148610f5d565b6040517f118cdaa700000000000000000000000000000000000000000000000000000000815260040161117b919061269d565b60405180910390fd5b565b60007f000000000000000000000000000000000000000000000000000000000000000073ffffffffffffffffffffffffffffffffffffffff163073ffffffffffffffffffffffffffffffffffffffff1614801561120257507f000000000000000000000000000000000000000000000000000000000000000046145b1561122f577f0000000000000000000000000000000000000000000000000000000000000000905061123a565b611237611ae3565b90505b90565b611245611b79565b6000600860146101000a81548160ff0219169083151502179055507f5db9ee0a495bf2e6ff9c91a7834c1ba4fdd244a5e8aa4e537bd38aeae4b073aa611289610f5d565b604051611296919061269d565b60405180910390a1565b600073ffffffffffffffffffffffffffffffffffffffff168273ffffffffffffffffffffffffffffffffffffffff16036113125760006040517fec442f05000000000000000000000000000000000000000000000000000000008152600401611309919061269d565b60405180910390fd5b61131e60008383611804565b5050565b6000600860009054906101000a900473ffffffffffffffffffffffffffffffffffffffff16905081600860006101000a81548173ffffffffffffffffffffffffffffffffffffffff021916908373ffffffffffffffffffffffffffffffffffffffff1602179055508173ffffffffffffffffffffffffffffffffffffffff168173ffffffffffffffffffffffffffffffffffffffff167f8be0079c531659141344cd1fd0a4f28419497f9722a3daafe3b4186f6b6457e060405160405180910390a35050565b6000600760008373ffffffffffffffffffffffffffffffffffffffff1673ffffffffffffffffffffffffffffffffffffffff168152602001908152602001600020549050919050565b611439611bb9565b6001600860146101000a81548160ff0219169083151502179055507f62e78cea01bee320cd4e420270b5ea74000d11b0c9f74754ebdbfc544b05a25861147d610f5d565b60405161148a919061269d565b60405180910390a1565b60606114ca60057f0000000000000000000000000000000000000000000000000000000000000000611bfa90919063ffffffff16565b905090565b606061150560067f0000000000000000000000000000000000000000000000000000000000000000611bfa90919063ffffffff16565b905090565b600073ffffffffffffffffffffffffffffffffffffffff168273ffffffffffffffffffffffffffffffffffffffff160361157c5760006040517f96c6fd1e000000000000000000000000000000000000000000000000000000008152600401611573919061269d565b60405180910390fd5b61158882600083611804565b5050565b6000600760008373ffffffffffffffffffffffffffffffffffffffff1673ffffffffffffffffffffffffffffffffffffffff1681526020019081526020016000206000815480929190600101919050559050919050565b60006115f66115f0611186565b83611caa565b9050919050565b60008060008061160f88888888611ceb565b92509250925061161f8282611ddf565b829350505050949350505050565b600073ffffffffffffffffffffffffffffffffffffffff168473ffffffffffffffffffffffffffffffffffffffff160361169f5760006040517fe602df05000000000000000000000000000000000000000000000000000000008152600401611696919061269d565b60405180910390fd5b600073ffffffffffffffffffffffffffffffffffffffff168373ffffffffffffffffffffffffffffffffffffffff16036117115760006040517f94280d62000000000000000000000000000000000000000000000000000000008152600401611708919061269d565b60405180910390fd5b81600160008673ffffffffffffffffffffffffffffffffffffffff1673ffffffffffffffffffffffffffffffffffffffff16815260200190815260200160002060008573ffffffffffffffffffffffffffffffffffffffff1673ffffffffffffffffffffffffffffffffffffffff1681526020019081526020016000208190555080156117fe578273ffffffffffffffffffffffffffffffffffffffff168473ffffffffffffffffffffffffffffffffffffffff167f8c5be1e5ebec7d5bd14f71427d1e84f3dd0314c0f7b2291e5b200ac8c7c3b925846040516117f5919061240b565b60405180910390a35b50505050565b61180f838383611f43565b600073ffffffffffffffffffffffffffffffffffffffff168273ffffffffffffffffffffffffffffffffffffffff16146118d057600960008373ffffffffffffffffffffffffffffffffffffffff1673ffffffffffffffffffffffffffffffffffffffff16815260200190815260200160002060009054906101000a900460ff166118cf576040517f08c379a00000000000000000000000000000000000000000000000000000000081526004016118c690612c02565b60405180910390fd5b5b600073ffffffffffffffffffffffffffffffffffffffff168373ffffffffffffffffffffffffffffffffffffffff161461199157600960008473ffffffffffffffffffffffffffffffffffffffff1673ffffffffffffffffffffffffffffffffffffffff16815260200190815260200160002060009054906101000a900460ff16611990576040517f08c379a000000000000000000000000000000000000000000000000000000000815260040161198790612c02565b60405180910390fd5b5b611999610738565b8015611a915750600a60009054906101000a900473ffffffffffffffffffffffffffffffffffffffff1673ffffffffffffffffffffffffffffffffffffffff168373ffffffffffffffffffffffffffffffffffffffff16141580611a4b5750600a60009054906101000a900473ffffffffffffffffffffffffffffffffffffffff1673ffffffffffffffffffffffffffffffffffffffff168273ffffffffffffffffffffffffffffffffffffffff1614155b80611a905750611a5961094b565b73ffffffffffffffffffffffffffffffffffffffff16611a77610f5d565b73ffffffffffffffffffffffffffffffffffffffff1614155b5b15611ade57611a9e610738565b611add576040517f08c379a0000000000000000000000000000000000000000000000000000000008152600401611ad490612c94565b60405180910390fd5b5b505050565b60007f8b73c3c69bb8fe3d512ecc4cf759cc79239f7b179b0ffacaa9a75d522b39400f7f00000000000000000000000000000000000000000000000000000000000000007f00000000000000000000000000000000000000000000000000000000000000004630604051602001611b5e959493929190612cb4565b60405160208183030381529060405280519060200120905090565b611b81610738565b611bb7576040517f8dfc202b00000000000000000000000000000000000000000000000000000000815260040160405180910390fd5b565b611bc1610738565b15611bf8576040517fd93c066500000000000000000000000000000000000000000000000000000000815260040160405180910390fd5b565b606060ff60001b8314611c1757611c1083612168565b9050611ca4565b818054611c23906129b2565b80601f0160208091040260200160405190810160405280929190818152602001828054611c4f906129b2565b8015611c9c5780601f10611c7157610100808354040283529160200191611c9c565b820191906000526020600020905b815481529060010190602001808311611c7f57829003601f168201915b505050505090505b92915050565b60006040517f190100000000000000000000000000000000000000000000000000000000000081528360028201528260228201526042812091505092915050565b60008060007f7fffffffffffffffffffffffffffffff5d576e7357a4501ddfe92f46681b20a08460001c1115611d2b576000600385925092509250611dd5565b600060018888888860405160008152602001604052604051611d509493929190612d07565b6020604051602081039080840390855afa158015611d72573d6000803e3d6000fd5b505050602060405103519050600073ffffffffffffffffffffffffffffffffffffffff168173ffffffffffffffffffffffffffffffffffffffff1603611dc657600060016000801b93509350935050611dd5565b8060008060001b935093509350505b9450945094915050565b60006003811115611df357611df2612d4c565b5b826003811115611e0657611e05612d4c565b5b0315611f3f5760016003811115611e2057611e1f612d4c565b5b826003811115611e3357611e32612d4c565b5b03611e6a576040517ff645eedf00000000000000000000000000000000000000000000000000000000815260040160405180910390fd5b60026003811115611e7e57611e7d612d4c565b5b826003811115611e9157611e90612d4c565b5b03611ed6578060001c6040517ffce698f7000000000000000000000000000000000000000000000000000000008152600401611ecd919061240b565b60405180910390fd5b600380811115611ee957611ee8612d4c565b5b826003811115611efc57611efb612d4c565b5b03611f3e57806040517fd78bce0c000000000000000000000000000000000000000000000000000000008152600401611f3591906124c9565b60405180910390fd5b5b5050565b600073ffffffffffffffffffffffffffffffffffffffff168373ffffffffffffffffffffffffffffffffffffffff1603611f95578060026000828254611f899190612d7b565b92505081905550612068565b60008060008573ffffffffffffffffffffffffffffffffffffffff1673ffffffffffffffffffffffffffffffffffffffff16815260200190815260200160002054905081811015612021578381836040517fe450d38c00000000000000000000000000000000000000000000000000000000815260040161201893929190612b7f565b60405180910390fd5b8181036000808673ffffffffffffffffffffffffffffffffffffffff1673ffffffffffffffffffffffffffffffffffffffff16815260200190815260200160002081905550505b600073ffffffffffffffffffffffffffffffffffffffff168273ffffffffffffffffffffffffffffffffffffffff16036120b157806002600082825403925050819055506120fe565b806000808473ffffffffffffffffffffffffffffffffffffffff1673ffffffffffffffffffffffffffffffffffffffff168152602001908152602001600020600082825401925050819055505b8173ffffffffffffffffffffffffffffffffffffffff168373ffffffffffffffffffffffffffffffffffffffff167fddf252ad1be2c89b69c2b068fc378daa952ba7f163c4a11628f55a4df523b3ef8360405161215b919061240b565b60405180910390a3505050565b60606000612175836121dc565b90506000602067ffffffffffffffff811115612194576121936126bd565b5b6040519080825280601f01601f1916602001820160405280156121c65781602001600182028036833780820191505090505b5090508181528360208201528092505050919050565b60008060ff8360001c169050601f811115612223576040517fb3512b0c00000000000000000000000000000000000000000000000000000000815260040160405180910390fd5b80915050919050565b600081519050919050565b600082825260208201905092915050565b60005b8381101561226657808201518184015260208101905061224b565b60008484015250505050565b6000601f19601f8301169050919050565b600061228e8261222c565b6122988185612237565b93506122a8818560208601612248565b6122b181612272565b840191505092915050565b600060208201905081810360008301526122d68184612283565b905092915050565b6000604051905090565b600080fd5b600080fd5b600073ffffffffffffffffffffffffffffffffffffffff82169050919050565b600061231d826122f2565b9050919050565b61232d81612312565b811461233857600080fd5b50565b60008135905061234a81612324565b92915050565b6000819050919050565b61236381612350565b811461236e57600080fd5b50565b6000813590506123808161235a565b92915050565b6000806040838503121561239d5761239c6122e8565b5b60006123ab8582860161233b565b92505060206123bc85828601612371565b9150509250929050565b60008115159050919050565b6123db816123c6565b82525050565b60006020820190506123f660008301846123d2565b92915050565b61240581612350565b82525050565b600060208201905061242060008301846123fc565b92915050565b60008060006060848603121561243f5761243e6122e8565b5b600061244d8682870161233b565b935050602061245e8682870161233b565b925050604061246f86828701612371565b9150509250925092565b600060ff82169050919050565b61248f81612479565b82525050565b60006020820190506124aa6000830184612486565b92915050565b6000819050919050565b6124c3816124b0565b82525050565b60006020820190506124de60008301846124ba565b92915050565b6000602082840312156124fa576124f96122e8565b5b60006125088482850161233b565b91505092915050565b60007fff0000000000000000000000000000000000000000000000000000000000000082169050919050565b61254681612511565b82525050565b61255581612312565b82525050565b600081519050919050565b600082825260208201905092915050565b6000819050602082019050919050565b61259081612350565b82525050565b60006125a28383612587565b60208301905092915050565b6000602082019050919050565b60006125c68261255b565b6125d08185612566565b93506125db83612577565b8060005b8381101561260c5781516125f38882612596565b97506125fe836125ae565b9250506001810190506125df565b5085935050505092915050565b600060e08201905061262e600083018a61253d565b81810360208301526126408189612283565b905081810360408301526126548188612283565b905061266360608301876123fc565b612670608083018661254c565b61267d60a08301856124ba565b81810360c083015261268f81846125bb565b905098975050505050505050565b60006020820190506126b2600083018461254c565b92915050565b600080fd5b7f4e487b7100000000000000000000000000000000000000000000000000000000600052604160045260246000fd5b6126f582612272565b810181811067ffffffffffffffff82111715612714576127136126bd565b5b80604052505050565b60006127276122de565b905061273382826126ec565b919050565b600067ffffffffffffffff821115612753576127526126bd565b5b602082029050602081019050919050565b600080fd5b600061277c61277784612738565b61271d565b9050808382526020820190506020840283018581111561279f5761279e612764565b5b835b818110156127c857806127b4888261233b565b8452602084019350506020810190506127a1565b5050509392505050565b600082601f8301126127e7576127e66126b8565b5b81356127f7848260208601612769565b91505092915050565b600060208284031215612816576128156122e8565b5b600082013567ffffffffffffffff811115612834576128336122ed565b5b612840848285016127d2565b91505092915050565b61285281612479565b811461285d57600080fd5b50565b60008135905061286f81612849565b92915050565b61287e816124b0565b811461288957600080fd5b50565b60008135905061289b81612875565b92915050565b600080600080600080600060e0888a0312156128c0576128bf6122e8565b5b60006128ce8a828b0161233b565b97505060206128df8a828b0161233b565b96505060406128f08a828b01612371565b95505060606129018a828b01612371565b94505060806129128a828b01612860565b93505060a06129238a828b0161288c565b92505060c06129348a828b0161288c565b91505092959891949750929550565b6000806040838503121561295a576129596122e8565b5b60006129688582860161233b565b92505060206129798582860161233b565b9150509250929050565b7f4e487b7100000000000000000000000000000000000000000000000000000000600052602260045260246000fd5b600060028204905060018216806129ca57607f821691505b6020821081036129dd576129dc612983565b5b50919050565b7f436f6d706c69616e74546f6b656e3a3a494e56414c49445f57414c4c45540000600082015250565b6000612a19601e83612237565b9150612a24826129e3565b602082019050919050565b60006020820190508181036000830152612a4881612a0c565b9050919050565b7f4e487b7100000000000000000000000000000000000000000000000000000000600052603260045260246000fd5b7f4e487b7100000000000000000000000000000000000000000000000000000000600052601160045260246000fd5b6000612ab882612350565b91507fffffffffffffffffffffffffffffffffffffffffffffffffffffffffffffffff8203612aea57612ae9612a7e565b5b600182019050919050565b600060c082019050612b0a60008301896124ba565b612b17602083018861254c565b612b24604083018761254c565b612b3160608301866123fc565b612b3e60808301856123fc565b612b4b60a08301846123fc565b979650505050505050565b6000604082019050612b6b600083018561254c565b612b78602083018461254c565b9392505050565b6000606082019050612b94600083018661254c565b612ba160208301856123fc565b612bae60408301846123fc565b949350505050565b7f436f6d706c69616e74546f6b656e3a3a4e4f545f57484954454c495354454400600082015250565b6000612bec601f83612237565b9150612bf782612bb6565b602082019050919050565b60006020820190508181036000830152612c1b81612bdf565b9050919050565b7f436f6d706c69616e74546f6b656e3a3a4e4f545f414c4c4f5745445f544f5f5460008201527f52414e5346455200000000000000000000000000000000000000000000000000602082015250565b6000612c7e602783612237565b9150612c8982612c22565b604082019050919050565b60006020820190508181036000830152612cad81612c71565b9050919050565b600060a082019050612cc960008301886124ba565b612cd660208301876124ba565b612ce360408301866124ba565b612cf060608301856123fc565b612cfd608083018461254c565b9695505050505050565b6000608082019050612d1c60008301876124ba565b612d296020830186612486565b612d3660408301856124ba565b612d4360608301846124ba565b95945050505050565b7f4e487b7100000000000000000000000000000000000000000000000000000000600052602160045260246000fd5b6000612d8682612350565b9150612d9183612350565b9250828201905080821115612da957612da8612a7e565b5b9291505056fea2646970667358221220409e78d9293065d2027f6f124ce671805c65b247e1f2f2fc40289eb350e790ed64736f6c63430008140033",
	"linkReferences": {},
	"deployedLinkReferences": {}
}