{
  "_format": "hh-sol-artifact-1",
  "contractName": "CrowdSale",
  "sourceName": "contracts/CrowdSale.sol",
  "abi": [
    {
      "inputs": [
        {
          "internalType": "contract ICompliantToken",
          "name": "_token",
          "type": "address"
        },
        {
          "internalType": "contract IERC20",
          "name": "_drex",
          "type": "address"
        },
        {
          "internalType": "uint256",
          "name": "_duration",
          "type": "uint256"
        },
        {
          "internalType": "uint256",
          "name": "_openTime",
          "type": "uint256"
        },
        {
          "internalType": "uint256",
          "name": "_releaseTime",
          "type": "uint256"
        },
        {
          "internalType": "uint256",
          "name": "_releaseDuration",
          "type": "uint256"
        },
        {
          "internalType": "uint256",
          "name": "_saleAmountDrex",
          "type": "uint256"
        },
        {
          "internalType": "uint256",
          "name": "_saleAmountToken",
          "type": "uint256"
        },
        {
          "internalType": "uint256",
          "name": "_minimumSaleAmountForClaim",
          "type": "uint256"
        },
        {
          "internalType": "address",
          "name": "_fundingWallet",
          "type": "address"
        }
      ],
      "stateMutability": "nonpayable",
      "type": "constructor"
    },
    {
      "inputs": [
        {
          "internalType": "address",
          "name": "target",
          "type": "address"
        }
      ],
      "name": "AddressEmptyCode",
      "type": "error"
    },
    {
      "inputs": [
        {
          "internalType": "address",
          "name": "account",
          "type": "address"
        }
      ],
      "name": "AddressInsufficientBalance",
      "type": "error"
    },
    {
      "inputs": [],
      "name": "EnforcedPause",
      "type": "error"
    },
    {
      "inputs": [],
      "name": "ExpectedPause",
      "type": "error"
    },
    {
      "inputs": [],
      "name": "FailedInnerCall",
      "type": "error"
    },
    {
      "inputs": [
        {
          "internalType": "address",
          "name": "owner",
          "type": "address"
        }
      ],
      "name": "OwnableInvalidOwner",
      "type": "error"
    },
    {
      "inputs": [
        {
          "internalType": "address",
          "name": "account",
          "type": "address"
        }
      ],
      "name": "OwnableUnauthorizedAccount",
      "type": "error"
    },
    {
      "inputs": [
        {
          "internalType": "address",
          "name": "token",
          "type": "address"
        }
      ],
      "name": "SafeERC20FailedOperation",
      "type": "error"
    },
    {
      "anonymous": false,
      "inputs": [
        {
          "indexed": false,
          "internalType": "uint256",
          "name": "rate",
          "type": "uint256"
        }
      ],
      "name": "DrexConversionRateChanged",
      "type": "event"
    },
    {
      "anonymous": false,
      "inputs": [
        {
          "indexed": false,
          "internalType": "address",
          "name": "wallet",
          "type": "address"
        }
      ],
      "name": "FundingWalletChanged",
      "type": "event"
    },
    {
      "anonymous": false,
      "inputs": [
        {
          "indexed": false,
          "internalType": "uint256",
          "name": "amount",
          "type": "uint256"
        }
      ],
      "name": "MinimumSaleAmountForClaimChanged",
      "type": "event"
    },
    {
      "anonymous": false,
      "inputs": [
        {
          "indexed": true,
          "internalType": "address",
          "name": "previousOwner",
          "type": "address"
        },
        {
          "indexed": true,
          "internalType": "address",
          "name": "newOwner",
          "type": "address"
        }
      ],
      "name": "OwnershipTransferred",
      "type": "event"
    },
    {
      "anonymous": false,
      "inputs": [
        {
          "indexed": false,
          "internalType": "address",
          "name": "account",
          "type": "address"
        }
      ],
      "name": "Paused",
      "type": "event"
    },
    {
      "anonymous": false,
      "inputs": [
        {
          "indexed": false,
          "internalType": "address",
          "name": "owner",
          "type": "address"
        },
        {
          "indexed": false,
          "internalType": "uint256",
          "name": "amount",
          "type": "uint256"
        }
      ],
      "name": "RefundRemainingTokensToOwner",
      "type": "event"
    },
    {
      "anonymous": false,
      "inputs": [
        {
          "indexed": false,
          "internalType": "address",
          "name": "wallet",
          "type": "address"
        },
        {
          "indexed": false,
          "internalType": "uint256",
          "name": "drexAmount",
          "type": "uint256"
        }
      ],
      "name": "RefundUser",
      "type": "event"
    },
    {
      "anonymous": false,
      "inputs": [
        {
          "indexed": false,
          "internalType": "address",
          "name": "saleAddress",
          "type": "address"
        },
        {
          "indexed": false,
          "internalType": "address",
          "name": "token",
          "type": "address"
        },
        {
          "indexed": false,
          "internalType": "uint256",
          "name": "openTime",
          "type": "uint256"
        },
        {
          "indexed": false,
          "internalType": "uint256",
          "name": "closeTime",
          "type": "uint256"
        },
        {
          "indexed": false,
          "internalType": "uint256",
          "name": "releaseTime",
          "type": "uint256"
        },
        {
          "indexed": false,
          "internalType": "uint256",
          "name": "releaseEndTime",
          "type": "uint256"
        },
        {
          "indexed": false,
          "internalType": "uint256",
          "name": "drexConversionRate",
          "type": "uint256"
        },
        {
          "indexed": false,
          "internalType": "uint256",
          "name": "saleAmount",
          "type": "uint256"
        },
        {
          "indexed": false,
          "internalType": "uint256",
          "name": "minimumSaleAmountForClaim",
          "type": "uint256"
        }
      ],
      "name": "SaleCreated",
      "type": "event"
    },
    {
      "anonymous": false,
      "inputs": [
        {
          "indexed": false,
          "internalType": "uint256",
          "name": "amount",
          "type": "uint256"
        }
      ],
      "name": "SaleLoaded",
      "type": "event"
    },
    {
      "anonymous": false,
      "inputs": [
        {
          "indexed": false,
          "internalType": "uint256",
          "name": "openTime",
          "type": "uint256"
        },
        {
          "indexed": false,
          "internalType": "uint256",
          "name": "closeTime",
          "type": "uint256"
        },
        {
          "indexed": false,
          "internalType": "uint256",
          "name": "releaseTime",
          "type": "uint256"
        }
      ],
      "name": "ScheduleChanged",
      "type": "event"
    },
    {
      "anonymous": false,
      "inputs": [
        {
          "indexed": false,
          "internalType": "address",
          "name": "wallet",
          "type": "address"
        },
        {
          "indexed": false,
          "internalType": "uint256",
          "name": "drexAmount",
          "type": "uint256"
        },
        {
          "indexed": false,
          "internalType": "address",
          "name": "owner",
          "type": "address"
        },
        {
          "indexed": false,
          "internalType": "uint256",
          "name": "feeAmount",
          "type": "uint256"
        }
      ],
      "name": "SendAmountRaisedToFundingWallet",
      "type": "event"
    },
    {
      "anonymous": false,
      "inputs": [
        {
          "indexed": false,
          "internalType": "address",
          "name": "wallet",
          "type": "address"
        },
        {
          "indexed": false,
          "internalType": "uint256",
          "name": "amount",
          "type": "uint256"
        }
      ],
      "name": "TokenClaimed",
      "type": "event"
    },
    {
      "anonymous": false,
      "inputs": [
        {
          "indexed": true,
          "internalType": "address",
          "name": "purchaser",
          "type": "address"
        },
        {
          "indexed": false,
          "internalType": "uint256",
          "name": "drexAmount",
          "type": "uint256"
        }
      ],
      "name": "TokenPurchase",
      "type": "event"
    },
    {
      "anonymous": false,
      "inputs": [
        {
          "indexed": false,
          "internalType": "address",
          "name": "account",
          "type": "address"
        }
      ],
      "name": "Unpaused",
      "type": "event"
    },
    {
      "inputs": [],
      "name": "amoutRaised",
      "outputs": [
        {
          "internalType": "uint256",
          "name": "",
          "type": "uint256"
        }
      ],
      "stateMutability": "view",
      "type": "function"
    },
    {
      "inputs": [
        {
          "internalType": "uint256",
          "name": "_amount",
          "type": "uint256"
        }
      ],
      "name": "buyToken",
      "outputs": [],
      "stateMutability": "nonpayable",
      "type": "function"
    },
    {
      "inputs": [
        {
          "internalType": "uint256",
          "name": "drexAmount",
          "type": "uint256"
        }
      ],
      "name": "calculateTokenAmount",
      "outputs": [
        {
          "internalType": "uint256",
          "name": "tokenAmount",
          "type": "uint256"
        }
      ],
      "stateMutability": "view",
      "type": "function"
    },
    {
      "inputs": [],
      "name": "claimTokens",
      "outputs": [],
      "stateMutability": "nonpayable",
      "type": "function"
    },
    {
      "inputs": [],
      "name": "closeTime",
      "outputs": [
        {
          "internalType": "uint256",
          "name": "",
          "type": "uint256"
        }
      ],
      "stateMutability": "view",
      "type": "function"
    },
    {
      "inputs": [],
      "name": "drex",
      "outputs": [
        {
          "internalType": "contract IERC20",
          "name": "",
          "type": "address"
        }
      ],
      "stateMutability": "view",
      "type": "function"
    },
    {
      "inputs": [],
      "name": "drexRaised",
      "outputs": [
        {
          "internalType": "uint256",
          "name": "",
          "type": "uint256"
        }
      ],
      "stateMutability": "view",
      "type": "function"
    },
    {
      "inputs": [],
      "name": "fundingWallet",
      "outputs": [
        {
          "internalType": "address",
          "name": "",
          "type": "address"
        }
      ],
      "stateMutability": "view",
      "type": "function"
    },
    {
      "inputs": [],
      "name": "getAvailableTokens",
      "outputs": [
        {
          "internalType": "uint256",
          "name": "availableTokens",
          "type": "uint256"
        }
      ],
      "stateMutability": "view",
      "type": "function"
    },
    {
      "inputs": [
        {
          "internalType": "address",
          "name": "_address",
          "type": "address"
        }
      ],
      "name": "getAvailableTokensToClaim",
      "outputs": [
        {
          "internalType": "uint256",
          "name": "availableTokens",
          "type": "uint256"
        }
      ],
      "stateMutability": "view",
      "type": "function"
    },
    {
      "inputs": [
        {
          "internalType": "address",
          "name": "_address",
          "type": "address"
        }
      ],
      "name": "getBoughtTokens",
      "outputs": [
        {
          "internalType": "uint256",
          "name": "boughtTokens",
          "type": "uint256"
        }
      ],
      "stateMutability": "view",
      "type": "function"
    },
    {
      "inputs": [
        {
          "internalType": "address",
          "name": "_address",
          "type": "address"
        }
      ],
      "name": "getBuyableTokens",
      "outputs": [
        {
          "internalType": "uint256",
          "name": "buyableTokens",
          "type": "uint256"
        }
      ],
      "stateMutability": "view",
      "type": "function"
    },
    {
      "inputs": [
        {
          "internalType": "address",
          "name": "_address",
          "type": "address"
        }
      ],
      "name": "getClaimableTokens",
      "outputs": [
        {
          "internalType": "uint256",
          "name": "claimableTokens",
          "type": "uint256"
        }
      ],
      "stateMutability": "view",
      "type": "function"
    },
    {
      "inputs": [
        {
          "internalType": "address",
          "name": "_address",
          "type": "address"
        }
      ],
      "name": "getDrexAvailableForRefund",
      "outputs": [
        {
          "internalType": "uint256",
          "name": "drexAmount",
          "type": "uint256"
        }
      ],
      "stateMutability": "view",
      "type": "function"
    },
    {
      "inputs": [],
      "name": "isClaimable",
      "outputs": [
        {
          "internalType": "bool",
          "name": "claimable",
          "type": "bool"
        }
      ],
      "stateMutability": "view",
      "type": "function"
    },
    {
      "inputs": [],
      "name": "isLoaded",
      "outputs": [
        {
          "internalType": "bool",
          "name": "",
          "type": "bool"
        }
      ],
      "stateMutability": "view",
      "type": "function"
    },
    {
      "inputs": [],
      "name": "isOpen",
      "outputs": [
        {
          "internalType": "bool",
          "name": "open",
          "type": "bool"
        }
      ],
      "stateMutability": "view",
      "type": "function"
    },
    {
      "inputs": [],
      "name": "isOverAndDidnSellEnought",
      "outputs": [
        {
          "internalType": "bool",
          "name": "needsRefund",
          "type": "bool"
        }
      ],
      "stateMutability": "view",
      "type": "function"
    },
    {
      "inputs": [],
      "name": "loadSale",
      "outputs": [],
      "stateMutability": "nonpayable",
      "type": "function"
    },
    {
      "inputs": [],
      "name": "maxBuyAllowed",
      "outputs": [
        {
          "internalType": "uint256",
          "name": "",
          "type": "uint256"
        }
      ],
      "stateMutability": "view",
      "type": "function"
    },
    {
      "inputs": [],
      "name": "minimumSaleAmountForClaim",
      "outputs": [
        {
          "internalType": "uint256",
          "name": "",
          "type": "uint256"
        }
      ],
      "stateMutability": "view",
      "type": "function"
    },
    {
      "inputs": [],
      "name": "openTime",
      "outputs": [
        {
          "internalType": "uint256",
          "name": "",
          "type": "uint256"
        }
      ],
      "stateMutability": "view",
      "type": "function"
    },
    {
      "inputs": [],
      "name": "owner",
      "outputs": [
        {
          "internalType": "address",
          "name": "",
          "type": "address"
        }
      ],
      "stateMutability": "view",
      "type": "function"
    },
    {
      "inputs": [],
      "name": "pause",
      "outputs": [],
      "stateMutability": "nonpayable",
      "type": "function"
    },
    {
      "inputs": [],
      "name": "paused",
      "outputs": [
        {
          "internalType": "bool",
          "name": "",
          "type": "bool"
        }
      ],
      "stateMutability": "view",
      "type": "function"
    },
    {
      "inputs": [
        {
          "internalType": "address",
          "name": "_wallet",
          "type": "address"
        }
      ],
      "name": "refundAllTokensToOwner",
      "outputs": [],
      "stateMutability": "nonpayable",
      "type": "function"
    },
    {
      "inputs": [
        {
          "internalType": "address",
          "name": "_wallet",
          "type": "address"
        }
      ],
      "name": "refundRemainingTokensToOwner",
      "outputs": [],
      "stateMutability": "nonpayable",
      "type": "function"
    },
    {
      "inputs": [],
      "name": "refundUser",
      "outputs": [],
      "stateMutability": "nonpayable",
      "type": "function"
    },
    {
      "inputs": [],
      "name": "releaseEndTime",
      "outputs": [
        {
          "internalType": "uint256",
          "name": "",
          "type": "uint256"
        }
      ],
      "stateMutability": "view",
      "type": "function"
    },
    {
      "inputs": [],
      "name": "releaseTime",
      "outputs": [
        {
          "internalType": "uint256",
          "name": "",
          "type": "uint256"
        }
      ],
      "stateMutability": "view",
      "type": "function"
    },
    {
      "inputs": [],
      "name": "renounceOwnership",
      "outputs": [],
      "stateMutability": "nonpayable",
      "type": "function"
    },
    {
      "inputs": [],
      "name": "saleAmountDrex",
      "outputs": [
        {
          "internalType": "uint256",
          "name": "",
          "type": "uint256"
        }
      ],
      "stateMutability": "view",
      "type": "function"
    },
    {
      "inputs": [],
      "name": "saleAmountToken",
      "outputs": [
        {
          "internalType": "uint256",
          "name": "",
          "type": "uint256"
        }
      ],
      "stateMutability": "view",
      "type": "function"
    },
    {
      "inputs": [],
      "name": "sendAmoutRaisedToFundingWallet",
      "outputs": [],
      "stateMutability": "nonpayable",
      "type": "function"
    },
    {
      "inputs": [
        {
          "internalType": "address",
          "name": "_address",
          "type": "address"
        }
      ],
      "name": "setFundingWallet",
      "outputs": [],
      "stateMutability": "nonpayable",
      "type": "function"
    },
    {
      "inputs": [
        {
          "internalType": "uint256",
          "name": "_amount",
          "type": "uint256"
        }
      ],
      "name": "setMinimumSaleAmountForClaim",
      "outputs": [],
      "stateMutability": "nonpayable",
      "type": "function"
    },
    {
      "inputs": [
        {
          "internalType": "uint256",
          "name": "_newAmount",
          "type": "uint256"
        }
      ],
      "name": "setSaleAmountDrex",
      "outputs": [],
      "stateMutability": "nonpayable",
      "type": "function"
    },
    {
      "inputs": [
        {
          "internalType": "uint256",
          "name": "_openTime",
          "type": "uint256"
        },
        {
          "internalType": "uint256",
          "name": "_duration",
          "type": "uint256"
        },
        {
          "internalType": "uint256",
          "name": "_releaseTime",
          "type": "uint256"
        },
        {
          "internalType": "uint256",
          "name": "_releaseDuration",
          "type": "uint256"
        }
      ],
      "name": "setSchedule",
      "outputs": [],
      "stateMutability": "nonpayable",
      "type": "function"
    },
    {
      "inputs": [],
      "name": "soldEnoughForClaim",
      "outputs": [
        {
          "internalType": "bool",
          "name": "soldEnough",
          "type": "bool"
        }
      ],
      "stateMutability": "view",
      "type": "function"
    },
    {
      "inputs": [],
      "name": "token",
      "outputs": [
        {
          "internalType": "contract ICompliantToken",
          "name": "",
          "type": "address"
        }
      ],
      "stateMutability": "view",
      "type": "function"
    },
    {
      "inputs": [],
      "name": "tokenClaimed",
      "outputs": [
        {
          "internalType": "uint256",
          "name": "",
          "type": "uint256"
        }
      ],
      "stateMutability": "view",
      "type": "function"
    },
    {
      "inputs": [],
      "name": "tokenSold",
      "outputs": [
        {
          "internalType": "uint256",
          "name": "",
          "type": "uint256"
        }
      ],
      "stateMutability": "view",
      "type": "function"
    },
    {
      "inputs": [
        {
          "internalType": "address",
          "name": "newOwner",
          "type": "address"
        }
      ],
      "name": "transferOwnership",
      "outputs": [],
      "stateMutability": "nonpayable",
      "type": "function"
    },
    {
      "inputs": [],
      "name": "unpause",
      "outputs": [],
      "stateMutability": "nonpayable",
      "type": "function"
    }
  ],
  "bytecode": "0x60806040526404a817c80060105561012c6011553480156200002057600080fd5b5060405162004366380380620043668339818101604052810190620000469190620007e9565b62000056620005ed60201b60201c565b60008060006101000a81548160ff021916908315150217905550600073ffffffffffffffffffffffffffffffffffffffff168173ffffffffffffffffffffffffffffffffffffffff1603620000e55760006040517f1e4fbdf7000000000000000000000000000000000000000000000000000000008152600401620000dc9190620008f0565b60405180910390fd5b620000f681620005f560201b60201c565b50600073ffffffffffffffffffffffffffffffffffffffff168a73ffffffffffffffffffffffffffffffffffffffff160362000169576040517f08c379a000000000000000000000000000000000000000000000000000000000815260040162000160906200096e565b60405180910390fd5b600073ffffffffffffffffffffffffffffffffffffffff168973ffffffffffffffffffffffffffffffffffffffff1603620001db576040517f08c379a0000000000000000000000000000000000000000000000000000000008152600401620001d2906200096e565b60405180910390fd5b6000880362000221576040517f08c379a00000000000000000000000000000000000000000000000000000000081526004016200021890620009e0565b60405180910390fd5b6000850362000267576040517f08c379a00000000000000000000000000000000000000000000000000000000081526004016200025e9062000a52565b60405180910390fd5b42871015620002ad576040517f08c379a0000000000000000000000000000000000000000000000000000000008152600401620002a49062000ac4565b60405180910390fd5b60008411620002f3576040517f08c379a0000000000000000000000000000000000000000000000000000000008152600401620002ea9062000b36565b60405180910390fd5b6000600e541015801562000309575082600e5411155b6200034b576040517f08c379a0000000000000000000000000000000000000000000000000000000008152600401620003429062000bce565b60405180910390fd5b8588886200035a919062000c1f565b11156200039e576040517f08c379a0000000000000000000000000000000000000000000000000000000008152600401620003959062000cd0565b60405180910390fd5b60008311620003e4576040517f08c379a0000000000000000000000000000000000000000000000000000000008152600401620003db9062000d68565b60405180910390fd5b600073ffffffffffffffffffffffffffffffffffffffff168173ffffffffffffffffffffffffffffffffffffffff160362000456576040517f08c379a00000000000000000000000000000000000000000000000000000000081526004016200044d906200096e565b60405180910390fd5b89600160006101000a81548173ffffffffffffffffffffffffffffffffffffffff021916908373ffffffffffffffffffffffffffffffffffffffff16021790555088600260006101000a81548173ffffffffffffffffffffffffffffffffffffffff021916908373ffffffffffffffffffffffffffffffffffffffff160217905550866005819055508787620004ed919062000c1f565b60068190555085600781905550848662000508919062000c1f565b60088190555083600d8190555082600c8190555081600e8190555080600360006101000a81548173ffffffffffffffffffffffffffffffffffffffff021916908373ffffffffffffffffffffffffffffffffffffffff1602179055507ff84df835f6ed0006658ffe7f4f0b7707aec3e7c9a7971f059f73933901586b5230600160009054906101000a900473ffffffffffffffffffffffffffffffffffffffff16600554600654600754600854600d54600c54600e54604051620005d59998979695949392919062000d9b565b60405180910390a15050505050505050505062000e3a565b600033905090565b60008060019054906101000a900473ffffffffffffffffffffffffffffffffffffffff16905081600060016101000a81548173ffffffffffffffffffffffffffffffffffffffff021916908373ffffffffffffffffffffffffffffffffffffffff1602179055508173ffffffffffffffffffffffffffffffffffffffff168173ffffffffffffffffffffffffffffffffffffffff167f8be0079c531659141344cd1fd0a4f28419497f9722a3daafe3b4186f6b6457e060405160405180910390a35050565b600080fd5b600073ffffffffffffffffffffffffffffffffffffffff82169050919050565b6000620006ec82620006bf565b9050919050565b60006200070082620006df565b9050919050565b6200071281620006f3565b81146200071e57600080fd5b50565b600081519050620007328162000707565b92915050565b60006200074582620006df565b9050919050565b620007578162000738565b81146200076357600080fd5b50565b60008151905062000777816200074c565b92915050565b6000819050919050565b62000792816200077d565b81146200079e57600080fd5b50565b600081519050620007b28162000787565b92915050565b620007c381620006df565b8114620007cf57600080fd5b50565b600081519050620007e381620007b8565b92915050565b6000806000806000806000806000806101408b8d03121562000810576200080f620006ba565b5b6000620008208d828e0162000721565b9a50506020620008338d828e0162000766565b9950506040620008468d828e01620007a1565b9850506060620008598d828e01620007a1565b97505060806200086c8d828e01620007a1565b96505060a06200087f8d828e01620007a1565b95505060c0620008928d828e01620007a1565b94505060e0620008a58d828e01620007a1565b935050610100620008b98d828e01620007a1565b925050610120620008cd8d828e01620007d2565b9150509295989b9194979a5092959850565b620008ea81620006df565b82525050565b6000602082019050620009076000830184620008df565b92915050565b600082825260208201905092915050565b7f43726f776453616c653a3a5a45524f5f41444452455353000000000000000000600082015250565b6000620009566017836200090d565b915062000963826200091e565b602082019050919050565b60006020820190508181036000830152620009898162000947565b9050919050565b7f43726f776453616c653a3a5a45524f5f4455524154494f4e0000000000000000600082015250565b6000620009c86018836200090d565b9150620009d58262000990565b602082019050919050565b60006020820190508181036000830152620009fb81620009b9565b9050919050565b7f43726f776453616c653a3a5a45524f5f52454c454153455f4455524154494f4e600082015250565b600062000a3a6020836200090d565b915062000a478262000a02565b602082019050919050565b6000602082019050818103600083015262000a6d8162000a2b565b9050919050565b7f43726f776453616c653a3a494e56414c49445f4f50454e5f54494d4500000000600082015250565b600062000aac601c836200090d565b915062000ab98262000a74565b602082019050919050565b6000602082019050818103600083015262000adf8162000a9d565b9050919050565b7f43726f776453616c653a3a494e56414c49445f52414953455f414d4f554e5400600082015250565b600062000b1e601f836200090d565b915062000b2b8262000ae6565b602082019050919050565b6000602082019050818103600083015262000b518162000b0f565b9050919050565b7f43726f776453616c653a3a494e56414c49445f4d494e494d554d5f53414c455f60008201527f414d4f554e540000000000000000000000000000000000000000000000000000602082015250565b600062000bb66026836200090d565b915062000bc38262000b58565b604082019050919050565b6000602082019050818103600083015262000be98162000ba7565b9050919050565b7f4e487b7100000000000000000000000000000000000000000000000000000000600052601160045260246000fd5b600062000c2c826200077d565b915062000c39836200077d565b925082820190508082111562000c545762000c5362000bf0565b5b92915050565b7f43726f776453616c653a3a494e56414c49445f52454c454153455f535441525460008201527f5f54494d45000000000000000000000000000000000000000000000000000000602082015250565b600062000cb86025836200090d565b915062000cc58262000c5a565b604082019050919050565b6000602082019050818103600083015262000ceb8162000ca9565b9050919050565b7f43726f776453616c653a3a494e56414c49445f52414953455f414d4f554e545f60008201527f544f4b454e000000000000000000000000000000000000000000000000000000602082015250565b600062000d506025836200090d565b915062000d5d8262000cf2565b604082019050919050565b6000602082019050818103600083015262000d838162000d41565b9050919050565b62000d95816200077d565b82525050565b60006101208201905062000db3600083018c620008df565b62000dc2602083018b620008df565b62000dd1604083018a62000d8a565b62000de0606083018962000d8a565b62000def608083018862000d8a565b62000dfe60a083018762000d8a565b62000e0d60c083018662000d8a565b62000e1c60e083018562000d8a565b62000e2c61010083018462000d8a565b9a9950505050505050505050565b61351c8062000e4a6000396000f3fe608060405234801561001057600080fd5b50600436106102745760003560e01c8063819f433511610151578063b91d4001116100c3578063e97c386511610087578063e97c3865146106ad578063e998ff75146106cb578063ea4b6081146106e9578063eb41ad4914610719578063f2fde38b14610737578063fc0c546a1461075357610274565b8063b91d40011461061b578063c41a2e1f14610639578063d02021cc14610655578063df7c6aa414610673578063e35568cb1461068f57610274565b80639ba95ef0116101155780639ba95ef014610531578063a1e8330714610561578063a24bcf461461057f578063abfdd097146105af578063b2db081a146105cd578063b4256888146105fd57610274565b8063819f4335146104b55780638456cb59146104d15780638da5cb5b146104db5780639819d24e146104f95780639b18bf481461051557610274565b8063441fc0c6116101ea5780635c975abb116101ae5780635c975abb1461042957806362740f9e14610447578063627749e614610451578063715018a61461046f57806374478bb3146104795780637ccf89321461049757610274565b8063441fc0c61461039557806347535d7b146103b357806348c54b9d146103d1578063509a34aa146103db578063519ee19e1461040b57610274565b806328b908261161023c57806328b908261461030b5780632d296bf1146103155780632f7fcf421461033157806337d562431461034f5780633c4b40b81461036d5780633f4ba83a1461038b57610274565b806309e079aa146102795780631252d9b214610283578063160e8366146102a15780631b831ead146102bd5780631bd047a1146102ed575b600080fd5b610281610771565b005b61028b61092f565b60405161029891906125eb565b60405180910390f35b6102bb60048036038101906102b69190612637565b610935565b005b6102d760048036038101906102d291906126c2565b610a0a565b6040516102e491906125eb565b60405180910390f35b6102f5610a6a565b60405161030291906125eb565b60405180910390f35b610313610a70565b005b61032f600480360381019061032a9190612637565b610d53565b005b6103396111c3565b60405161034691906125eb565b60405180910390f35b6103576111c9565b604051610364919061270a565b60405180910390f35b6103756111d8565b6040516103829190612734565b60405180910390f35b6103936111fe565b005b61039d611210565b6040516103aa91906127ae565b60405180910390f35b6103bb611236565b6040516103c8919061270a565b60405180910390f35b6103d9611269565b005b6103f560048036038101906103f091906126c2565b611467565b60405161040291906125eb565b60405180910390f35b6104136114c9565b60405161042091906125eb565b60405180910390f35b6104316114cf565b60405161043e919061270a565b60405180910390f35b61044f6114e5565b005b610459611697565b60405161046691906125eb565b60405180910390f35b61047761169d565b005b6104816116b1565b60405161048e919061270a565b60405180910390f35b61049f6116e6565b6040516104ac919061270a565b60405180910390f35b6104cf60048036038101906104ca91906127c9565b6116f9565b005b6104d961184d565b005b6104e361185f565b6040516104f09190612734565b60405180910390f35b610513600480360381019061050e91906126c2565b611888565b005b61052f600480360381019061052a91906126c2565b611a52565b005b61054b600480360381019061054691906126c2565b611b7a565b60405161055891906125eb565b60405180910390f35b610569611c80565b60405161057691906125eb565b60405180910390f35b61059960048036038101906105949190612637565b611c86565b6040516105a691906125eb565b60405180910390f35b6105b7611caa565b6040516105c4919061270a565b60405180910390f35b6105e760048036038101906105e291906126c2565b611ce0565b6040516105f491906125eb565b60405180910390f35b610605611d2c565b60405161061291906125eb565b60405180910390f35b610623611d32565b60405161063091906125eb565b60405180910390f35b610653600480360381019061064e9190612637565b611d38565b005b61065d611dd2565b60405161066a91906125eb565b60405180910390f35b61068d600480360381019061068891906126c2565b611dd8565b005b610697611eb4565b6040516106a491906125eb565b60405180910390f35b6106b5611ecb565b6040516106c291906125eb565b60405180910390f35b6106d3611ed1565b6040516106e091906125eb565b60405180910390f35b61070360048036038101906106fe91906126c2565b611ed7565b60405161071091906125eb565b60405180910390f35b610721611f38565b60405161072e91906125eb565b60405180910390f35b610751600480360381019061074c91906126c2565b611f3e565b005b61075b611fc4565b6040516107689190612851565b60405180910390f35b610779611caa565b6107b8576040517f08c379a00000000000000000000000000000000000000000000000000000000081526004016107af906128ef565b60405180910390fd5b6000601260006107c6611fea565b73ffffffffffffffffffffffffffffffffffffffff1673ffffffffffffffffffffffffffffffffffffffff16815260200190815260200160002060020154905060008111610849576040517f08c379a00000000000000000000000000000000000000000000000000000000081526004016108409061295b565b60405180910390fd5b61089d610854611fea565b82600260009054906101000a900473ffffffffffffffffffffffffffffffffffffffff1673ffffffffffffffffffffffffffffffffffffffff16611ff29092919063ffffffff16565b6000601260006108ab611fea565b73ffffffffffffffffffffffffffffffffffffffff1673ffffffffffffffffffffffffffffffffffffffff168152602001908152602001600020600201819055507f46755223cde41dde71e77855345e96df23b731766f33faf62801a0d74c60ae22610915611fea565b8260405161092492919061297b565b60405180910390a150565b600d5481565b61093d612071565b80600d5403610981576040517f08c379a0000000000000000000000000000000000000000000000000000000008152600401610978906129f0565b60405180910390fd5b6109896116b1565b156109c9576040517f08c379a00000000000000000000000000000000000000000000000000000000081526004016109c090612a5c565b60405180910390fd5b80600d819055507fd37e120426ec39f9239d600ce5788e202c46d38ce8e6b1cf097c7c9a3ee9fc30816040516109ff91906125eb565b60405180910390a150565b600080601260008473ffffffffffffffffffffffffffffffffffffffff1673ffffffffffffffffffffffffffffffffffffffff168152602001908152602001600020905080600101548160000154610a629190612aab565b915050919050565b600b5481565b610a78612071565b600f60009054906101000a900460ff1615610ac8576040517f08c379a0000000000000000000000000000000000000000000000000000000008152600401610abf90612b2b565b60405180910390fd5b6005544210610b0c576040517f08c379a0000000000000000000000000000000000000000000000000000000008152600401610b0390612b97565b60405180910390fd5b600c54600160009054906101000a900473ffffffffffffffffffffffffffffffffffffffff1673ffffffffffffffffffffffffffffffffffffffff166370a08231610b55611fea565b6040518263ffffffff1660e01b8152600401610b719190612734565b602060405180830381865afa158015610b8e573d6000803e3d6000fd5b505050506040513d601f19601f82011682018060405250810190610bb29190612bcc565b10158015610c665750600c54600160009054906101000a900473ffffffffffffffffffffffffffffffffffffffff1673ffffffffffffffffffffffffffffffffffffffff1663dd62ed3e610c04611fea565b306040518363ffffffff1660e01b8152600401610c22929190612bf9565b602060405180830381865afa158015610c3f573d6000803e3d6000fd5b505050506040513d601f19601f82011682018060405250810190610c639190612bcc565b10155b610ca5576040517f08c379a0000000000000000000000000000000000000000000000000000000008152600401610c9c90612c6e565b60405180910390fd5b610cfd610cb0611fea565b30600c54600160009054906101000a900473ffffffffffffffffffffffffffffffffffffffff1673ffffffffffffffffffffffffffffffffffffffff166120f8909392919063ffffffff16565b6001600f60006101000a81548160ff0219169083151502179055507f859edae7dae8427f4ddff8a6fc5e47bfec754201aae783c006b006d46456d8a0600c54604051610d4991906125eb565b60405180910390a1565b610d5b61217a565b610d636114cf565b15610da3576040517f08c379a0000000000000000000000000000000000000000000000000000000008152600401610d9a90612cda565b60405180910390fd5b620f42408111610de8576040517f08c379a0000000000000000000000000000000000000000000000000000000008152600401610ddf90612d46565b60405180910390fd5b600f60009054906101000a900460ff16610e37576040517f08c379a0000000000000000000000000000000000000000000000000000000008152600401610e2e90612db2565b60405180910390fd5b610e3f611236565b610e7e576040517f08c379a0000000000000000000000000000000000000000000000000000000008152600401610e7590612e1e565b60405180910390fd5b6000610e8982611c86565b9050610e9b610e96611fea565b611ed7565b811115610edd576040517f08c379a0000000000000000000000000000000000000000000000000000000008152600401610ed490612e8a565b60405180910390fd5b80610ee6611eb4565b1015610f27576040517f08c379a0000000000000000000000000000000000000000000000000000000008152600401610f1e90612f1c565b60405180910390fd5b600160009054906101000a900473ffffffffffffffffffffffffffffffffffffffff1673ffffffffffffffffffffffffffffffffffffffff16633af32abf610f6d611fea565b6040518263ffffffff1660e01b8152600401610f899190612734565b602060405180830381865afa158015610fa6573d6000803e3d6000fd5b505050506040513d601f19601f82011682018060405250810190610fca9190612f68565b611009576040517f08c379a000000000000000000000000000000000000000000000000000000000815260040161100090612fe1565b60405180910390fd5b61105f611014611fea565b3084600260009054906101000a900473ffffffffffffffffffffffffffffffffffffffff1673ffffffffffffffffffffffffffffffffffffffff166120f8909392919063ffffffff16565b81600960008282546110719190613001565b9250508190555080600a600082825461108a9190613001565b92505081905550806012600061109e611fea565b73ffffffffffffffffffffffffffffffffffffffff1673ffffffffffffffffffffffffffffffffffffffff16815260200190815260200160002060000160008282546110ea9190613001565b9250508190555081600460008282546111039190613001565b925050819055508160126000611117611fea565b73ffffffffffffffffffffffffffffffffffffffff1673ffffffffffffffffffffffffffffffffffffffff16815260200190815260200160002060020160008282546111639190613001565b92505081905550611172611fea565b73ffffffffffffffffffffffffffffffffffffffff167ff4b351c7293f3c20fc9912c61adbe9823a6de3162bde18c98eb6feeae232f861836040516111b791906125eb565b60405180910390a25050565b60095481565b6000600e54600a541015905090565b600360009054906101000a900473ffffffffffffffffffffffffffffffffffffffff1681565b611206612071565b61120e6121bb565b565b600260009054906101000a900473ffffffffffffffffffffffffffffffffffffffff1681565b6000600654421115801561124c57506005544210155b80156112645750600f60009054906101000a900460ff165b905090565b61127161217a565b6112796114cf565b156112b9576040517f08c379a00000000000000000000000000000000000000000000000000000000081526004016112b090612cda565b60405180910390fd5b6112c16116b1565b611300576040517f08c379a00000000000000000000000000000000000000000000000000000000081526004016112f790613081565b60405180910390fd5b600061131261130d611fea565b611b7a565b905060008111611357576040517f08c379a000000000000000000000000000000000000000000000000000000000815260040161134e9061295b565b60405180910390fd5b6113ab611362611fea565b82600160009054906101000a900473ffffffffffffffffffffffffffffffffffffffff1673ffffffffffffffffffffffffffffffffffffffff16611ff29092919063ffffffff16565b80600b60008282546113bd9190613001565b9250508190555080601260006113d1611fea565b73ffffffffffffffffffffffffffffffffffffffff1673ffffffffffffffffffffffffffffffffffffffff168152602001908152602001600020600101600082825461141d9190613001565b925050819055507fe42df0d9493dfd0d7f69902c895b94c190a53e8c27876a86f45e7c997d9d8f7c61144d611fea565b8260405161145c92919061297b565b60405180910390a150565b6000611471611caa565b6114bf57601260008373ffffffffffffffffffffffffffffffffffffffff1673ffffffffffffffffffffffffffffffffffffffff1681526020019081526020016000206002015490506114c4565b600090505b919050565b600a5481565b60008060009054906101000a900460ff16905090565b6114ed612071565b6114f56116b1565b611534576040517f08c379a000000000000000000000000000000000000000000000000000000000815260040161152b90613081565b60405180910390fd5b600060045490506000620186a060115460045461155191906130a1565b61155b9190613112565b90506115d9600360009054906101000a900473ffffffffffffffffffffffffffffffffffffffff16826004546115919190612aab565b600160009054906101000a900473ffffffffffffffffffffffffffffffffffffffff1673ffffffffffffffffffffffffffffffffffffffff16611ff29092919063ffffffff16565b61162d6115e461185f565b82600160009054906101000a900473ffffffffffffffffffffffffffffffffffffffff1673ffffffffffffffffffffffffffffffffffffffff16611ff29092919063ffffffff16565b7f91d3f03e45e745d9f875469f5223b2df84aaae2ff2bec97b13484ae65cb0d42a600360009054906101000a900473ffffffffffffffffffffffffffffffffffffffff168361167a61185f565b8460405161168b9493929190613143565b60405180910390a15050565b60065481565b6116a5612071565b6116af600061221d565b565b600060075442101580156116d15750600f60009054906101000a900460ff165b80156116e157506116e06111c9565b5b905090565b600f60009054906101000a900460ff1681565b611701612071565b42841015611744576040517f08c379a000000000000000000000000000000000000000000000000000000000815260040161173b906131d4565b60405180910390fd5b8183856117519190613001565b1115611792576040517f08c379a000000000000000000000000000000000000000000000000000000000815260040161178990613240565b60405180910390fd5b61179a6116b1565b156117da576040517f08c379a00000000000000000000000000000000000000000000000000000000081526004016117d190612a5c565b60405180910390fd5b8360058190555082846117ed9190613001565b6006819055508160078190555080826118069190613001565b6008819055507f772805d5c9b9c4a1781f5e169d2aed397eb94f721bf2e35b5d81726780b037d984848460405161183f93929190613260565b60405180910390a150505050565b611855612071565b61185d6122e2565b565b60008060019054906101000a900473ffffffffffffffffffffffffffffffffffffffff16905090565b611890612071565b600073ffffffffffffffffffffffffffffffffffffffff168173ffffffffffffffffffffffffffffffffffffffff16036118ff576040517f08c379a00000000000000000000000000000000000000000000000000000000081526004016118f6906132e3565b60405180910390fd5b6119076116b1565b15611947576040517f08c379a000000000000000000000000000000000000000000000000000000000815260040161193e90612a5c565b60405180910390fd5b8073ffffffffffffffffffffffffffffffffffffffff16600360009054906101000a900473ffffffffffffffffffffffffffffffffffffffff1673ffffffffffffffffffffffffffffffffffffffff16036119d7576040517f08c379a00000000000000000000000000000000000000000000000000000000081526004016119ce90613375565b60405180910390fd5b80600360006101000a81548173ffffffffffffffffffffffffffffffffffffffff021916908373ffffffffffffffffffffffffffffffffffffffff1602179055507f91a7ee7e6cfc3ec8ee97c1a8494884bb1fc27139e7f2e0fd49e2842542547ada81604051611a479190612734565b60405180910390a150565b611a5a612071565b611a626116b1565b611aa1576040517f08c379a0000000000000000000000000000000000000000000000000000000008152600401611a9890613081565b60405180910390fd5b6000611aab611eb4565b905060008111611af0576040517f08c379a0000000000000000000000000000000000000000000000000000000008152600401611ae79061295b565b60405180910390fd5b611b3d8282600160009054906101000a900473ffffffffffffffffffffffffffffffffffffffff1673ffffffffffffffffffffffffffffffffffffffff16611ff29092919063ffffffff16565b7f2811f43fbbb2f58d4d780618c4cc806c94e95f6cadb41c293d8b3cc6cab32fbe8282604051611b6e92919061297b565b60405180910390a15050565b6000611b846116b1565b611b915760009050611c7b565b6000601260008473ffffffffffffffffffffffffffffffffffffffff1673ffffffffffffffffffffffffffffffffffffffff168152602001908152602001600020905060006008544210611be757600854611be9565b425b9050600060075482611bfb9190612aab565b90508260010154600754600854611c129190612aab565b6064838660000154605a611c2691906130a1565b611c3091906130a1565b611c3a9190613112565b611c449190613112565b6064600a8660000154611c5791906130a1565b611c619190613112565b611c6b9190613001565b611c759190612aab565b93505050505b919050565b600c5481565b6000600d54600c5483611c9991906130a1565b611ca39190613112565b9050919050565b60006007544210158015611cca5750600f60009054906101000a900460ff165b8015611cdb5750611cd96111c9565b155b905090565b6000601260008373ffffffffffffffffffffffffffffffffffffffff1673ffffffffffffffffffffffffffffffffffffffff168152602001908152602001600020600001549050919050565b60055481565b60075481565b611d40612071565b600081118015611d525750600c548111155b611d91576040517f08c379a0000000000000000000000000000000000000000000000000000000008152600401611d8890613407565b60405180910390fd5b80600e819055507f7f196ee627e522d99f9d47fcf48bff699ed1a4c5cef44d0f9c96f57baab0b18a81604051611dc791906125eb565b60405180910390a150565b60085481565b611de0612071565b611de8611caa565b611e27576040517f08c379a0000000000000000000000000000000000000000000000000000000008152600401611e1e906128ef565b60405180910390fd5b611e7681600c54600160009054906101000a900473ffffffffffffffffffffffffffffffffffffffff1673ffffffffffffffffffffffffffffffffffffffff16611ff29092919063ffffffff16565b7f2811f43fbbb2f58d4d780618c4cc806c94e95f6cadb41c293d8b3cc6cab32fbe81600c54604051611ea992919061297b565b60405180910390a150565b6000600a54600c54611ec69190612aab565b905090565b600e5481565b60045481565b6000601260008373ffffffffffffffffffffffffffffffffffffffff1673ffffffffffffffffffffffffffffffffffffffff16815260200190815260200160002060000154611f27601054611c86565b611f319190612aab565b9050919050565b60105481565b611f46612071565b600073ffffffffffffffffffffffffffffffffffffffff168173ffffffffffffffffffffffffffffffffffffffff1603611fb85760006040517f1e4fbdf7000000000000000000000000000000000000000000000000000000008152600401611faf9190612734565b60405180910390fd5b611fc18161221d565b50565b600160009054906101000a900473ffffffffffffffffffffffffffffffffffffffff1681565b600033905090565b61206c838473ffffffffffffffffffffffffffffffffffffffff1663a9059cbb858560405160240161202592919061297b565b604051602081830303815290604052915060e01b6020820180517bffffffffffffffffffffffffffffffffffffffffffffffffffffffff8381831617835250505050612344565b505050565b612079611fea565b73ffffffffffffffffffffffffffffffffffffffff1661209761185f565b73ffffffffffffffffffffffffffffffffffffffff16146120f6576120ba611fea565b6040517f118cdaa70000000000000000000000000000000000000000000000000000000081526004016120ed9190612734565b60405180910390fd5b565b612174848573ffffffffffffffffffffffffffffffffffffffff166323b872dd86868660405160240161212d93929190613427565b604051602081830303815290604052915060e01b6020820180517bffffffffffffffffffffffffffffffffffffffffffffffffffffffff8381831617835250505050612344565b50505050565b6121826114cf565b156121b9576040517fd93c066500000000000000000000000000000000000000000000000000000000815260040160405180910390fd5b565b6121c36123db565b60008060006101000a81548160ff0219169083151502179055507f5db9ee0a495bf2e6ff9c91a7834c1ba4fdd244a5e8aa4e537bd38aeae4b073aa612206611fea565b6040516122139190612734565b60405180910390a1565b60008060019054906101000a900473ffffffffffffffffffffffffffffffffffffffff16905081600060016101000a81548173ffffffffffffffffffffffffffffffffffffffff021916908373ffffffffffffffffffffffffffffffffffffffff1602179055508173ffffffffffffffffffffffffffffffffffffffff168173ffffffffffffffffffffffffffffffffffffffff167f8be0079c531659141344cd1fd0a4f28419497f9722a3daafe3b4186f6b6457e060405160405180910390a35050565b6122ea61217a565b60016000806101000a81548160ff0219169083151502179055507f62e78cea01bee320cd4e420270b5ea74000d11b0c9f74754ebdbfc544b05a25861232d611fea565b60405161233a9190612734565b60405180910390a1565b600061236f828473ffffffffffffffffffffffffffffffffffffffff1661241b90919063ffffffff16565b905060008151141580156123945750808060200190518101906123929190612f68565b155b156123d657826040517f5274afe70000000000000000000000000000000000000000000000000000000081526004016123cd9190612734565b60405180910390fd5b505050565b6123e36114cf565b612419576040517f8dfc202b00000000000000000000000000000000000000000000000000000000815260040160405180910390fd5b565b606061242983836000612431565b905092915050565b60608147101561247857306040517fcd78605900000000000000000000000000000000000000000000000000000000815260040161246f9190612734565b60405180910390fd5b6000808573ffffffffffffffffffffffffffffffffffffffff1684866040516124a191906134cf565b60006040518083038185875af1925050503d80600081146124de576040519150601f19603f3d011682016040523d82523d6000602084013e6124e3565b606091505b50915091506124f38683836124fe565b925050509392505050565b6060826125135761250e8261258d565b612585565b6000825114801561253b575060008473ffffffffffffffffffffffffffffffffffffffff163b145b1561257d57836040517f9996b3150000000000000000000000000000000000000000000000000000000081526004016125749190612734565b60405180910390fd5b819050612586565b5b9392505050565b6000815111156125a05780518082602001fd5b6040517f1425ea4200000000000000000000000000000000000000000000000000000000815260040160405180910390fd5b6000819050919050565b6125e5816125d2565b82525050565b600060208201905061260060008301846125dc565b92915050565b600080fd5b612614816125d2565b811461261f57600080fd5b50565b6000813590506126318161260b565b92915050565b60006020828403121561264d5761264c612606565b5b600061265b84828501612622565b91505092915050565b600073ffffffffffffffffffffffffffffffffffffffff82169050919050565b600061268f82612664565b9050919050565b61269f81612684565b81146126aa57600080fd5b50565b6000813590506126bc81612696565b92915050565b6000602082840312156126d8576126d7612606565b5b60006126e6848285016126ad565b91505092915050565b60008115159050919050565b612704816126ef565b82525050565b600060208201905061271f60008301846126fb565b92915050565b61272e81612684565b82525050565b60006020820190506127496000830184612725565b92915050565b6000819050919050565b600061277461276f61276a84612664565b61274f565b612664565b9050919050565b600061278682612759565b9050919050565b60006127988261277b565b9050919050565b6127a88161278d565b82525050565b60006020820190506127c3600083018461279f565b92915050565b600080600080608085870312156127e3576127e2612606565b5b60006127f187828801612622565b945050602061280287828801612622565b935050604061281387828801612622565b925050606061282487828801612622565b91505092959194509250565b600061283b8261277b565b9050919050565b61284b81612830565b82525050565b60006020820190506128666000830184612842565b92915050565b600082825260208201905092915050565b7f43726f776453616c653a3a4e4f545f5155414c49464945445f464f525f46554c60008201527f4c5f524546554e44000000000000000000000000000000000000000000000000602082015250565b60006128d960288361286c565b91506128e48261287d565b604082019050919050565b60006020820190508181036000830152612908816128cc565b9050919050565b7f43726f776453616c653a3a454d5054595f42414c414e43450000000000000000600082015250565b600061294560188361286c565b91506129508261290f565b602082019050919050565b6000602082019050818103600083015261297481612938565b9050919050565b60006040820190506129906000830185612725565b61299d60208301846125dc565b9392505050565b7f43726f776453616c653a3a524154455f494e56414c4944000000000000000000600082015250565b60006129da60178361286c565b91506129e5826129a4565b602082019050919050565b60006020820190508181036000830152612a09816129cd565b9050919050565b7f43726f776453616c653a3a53414c455f454e4445440000000000000000000000600082015250565b6000612a4660158361286c565b9150612a5182612a10565b602082019050919050565b60006020820190508181036000830152612a7581612a39565b9050919050565b7f4e487b7100000000000000000000000000000000000000000000000000000000600052601160045260246000fd5b6000612ab6826125d2565b9150612ac1836125d2565b9250828203905081811115612ad957612ad8612a7c565b5b92915050565b7f43726f776453616c653a3a4c4f41445f414c52454144595f5645524946494544600082015250565b6000612b1560208361286c565b9150612b2082612adf565b602082019050919050565b60006020820190508181036000830152612b4481612b08565b9050919050565b7f43726f776453616c653a3a53414c455f414c52454144595f5354415254454400600082015250565b6000612b81601f8361286c565b9150612b8c82612b4b565b602082019050919050565b60006020820190508181036000830152612bb081612b74565b9050919050565b600081519050612bc68161260b565b92915050565b600060208284031215612be257612be1612606565b5b6000612bf084828501612bb7565b91505092915050565b6000604082019050612c0e6000830185612725565b612c1b6020830184612725565b9392505050565b7f43726f776453616c653a3a4e4f545f454e4f5547485f544f4b454e5300000000600082015250565b6000612c58601c8361286c565b9150612c6382612c22565b602082019050919050565b60006020820190508181036000830152612c8781612c4b565b9050919050565b7f43726f776453616c653a3a504155534544000000000000000000000000000000600082015250565b6000612cc460118361286c565b9150612ccf82612c8e565b602082019050919050565b60006020820190508181036000830152612cf381612cb7565b9050919050565b7f43726f776453616c653a3a494e56414c49445f414d4f554e5400000000000000600082015250565b6000612d3060198361286c565b9150612d3b82612cfa565b602082019050919050565b60006020820190508181036000830152612d5f81612d23565b9050919050565b7f43726f776453616c653a3a4e4f545f4c4f414445440000000000000000000000600082015250565b6000612d9c60158361286c565b9150612da782612d66565b602082019050919050565b60006020820190508181036000830152612dcb81612d8f565b9050919050565b7f43726f776453616c653a3a50555243484153455f4e4f545f414c4c4f57454400600082015250565b6000612e08601f8361286c565b9150612e1382612dd2565b602082019050919050565b60006020820190508181036000830152612e3781612dfb565b9050919050565b7f43726f776453616c653a3a4d41585f4255595f414d4f554e545f455845444544600082015250565b6000612e7460208361286c565b9150612e7f82612e3e565b602082019050919050565b60006020820190508181036000830152612ea381612e67565b9050919050565b7f43726f776453616c653a3a4e4f545f454e4f5547485f415641494c41424c455f60008201527f544f4b454e530000000000000000000000000000000000000000000000000000602082015250565b6000612f0660268361286c565b9150612f1182612eaa565b604082019050919050565b60006020820190508181036000830152612f3581612ef9565b9050919050565b612f45816126ef565b8114612f5057600080fd5b50565b600081519050612f6281612f3c565b92915050565b600060208284031215612f7e57612f7d612606565b5b6000612f8c84828501612f53565b91505092915050565b7f546f6b656e3a3a4e4f545f57484954454c495354454400000000000000000000600082015250565b6000612fcb60168361286c565b9150612fd682612f95565b602082019050919050565b60006020820190508181036000830152612ffa81612fbe565b9050919050565b600061300c826125d2565b9150613017836125d2565b925082820190508082111561302f5761302e612a7c565b5b92915050565b7f43726f776453616c653a3a53414c455f4e4f545f454e44454400000000000000600082015250565b600061306b60198361286c565b915061307682613035565b602082019050919050565b6000602082019050818103600083015261309a8161305e565b9050919050565b60006130ac826125d2565b91506130b7836125d2565b92508282026130c5816125d2565b915082820484148315176130dc576130db612a7c565b5b5092915050565b7f4e487b7100000000000000000000000000000000000000000000000000000000600052601260045260246000fd5b600061311d826125d2565b9150613128836125d2565b925082613138576131376130e3565b5b828204905092915050565b60006080820190506131586000830187612725565b61316560208301866125dc565b6131726040830185612725565b61317f60608301846125dc565b95945050505050565b7f43726f776453616c653a3a494e56414c49445f4f50454e5f54494d4500000000600082015250565b60006131be601c8361286c565b91506131c982613188565b602082019050919050565b600060208201905081810360008301526131ed816131b1565b9050919050565b7f43726f776453616c653a3a494e56414c49445f52454c454153455f54494d4500600082015250565b600061322a601f8361286c565b9150613235826131f4565b602082019050919050565b600060208201905081810360008301526132598161321d565b9050919050565b600060608201905061327560008301866125dc565b61328260208301856125dc565b61328f60408301846125dc565b949350505050565b7f43726f776453616c653a3a5a45524f5f41444452455353000000000000000000600082015250565b60006132cd60178361286c565b91506132d882613297565b602082019050919050565b600060208201905081810360008301526132fc816132c0565b9050919050565b7f43726f776453616c653a3a46554e44494e475f57414c4c45545f494e56414c4960008201527f4400000000000000000000000000000000000000000000000000000000000000602082015250565b600061335f60218361286c565b915061336a82613303565b604082019050919050565b6000602082019050818103600083015261338e81613352565b9050919050565b7f43726f776453616c653a3a4d494e494d554d5f414d4f554e545f494e56414c4960008201527f4400000000000000000000000000000000000000000000000000000000000000602082015250565b60006133f160218361286c565b91506133fc82613395565b604082019050919050565b60006020820190508181036000830152613420816133e4565b9050919050565b600060608201905061343c6000830186612725565b6134496020830185612725565b61345660408301846125dc565b949350505050565b600081519050919050565b600081905092915050565b60005b83811015613492578082015181840152602081019050613477565b60008484015250505050565b60006134a98261345e565b6134b38185613469565b93506134c3818560208601613474565b80840191505092915050565b60006134db828461349e565b91508190509291505056fea26469706673582212203152762171fb5e46db8e197da0a3e294984e5128e4e38c4400eec86120ace2d064736f6c63430008140033",
  "linkReferences": {},
  "deployedLinkReferences": {}
}